{
  "data": {
    "bytecode": {
      "linkReferences": {},
      "object": "608060405267016345785d8a000060015534801561001c57600080fd5b5061003961002e61003e60201b60201c565b61004660201b60201c565b61010a565b600033905090565b60008060009054906101000a900473ffffffffffffffffffffffffffffffffffffffff169050816000806101000a81548173ffffffffffffffffffffffffffffffffffffffff021916908373ffffffffffffffffffffffffffffffffffffffff1602179055508173ffffffffffffffffffffffffffffffffffffffff168173ffffffffffffffffffffffffffffffffffffffff167f8be0079c531659141344cd1fd0a4f28419497f9722a3daafe3b4186f6b6457e060405160405180910390a35050565b6118c4806101196000396000f3fe6080604052600436106100955760003560e01c80638da5cb5b116100595780638da5cb5b1461017d578063a12bcbe5146101a8578063a9059cbb146101e5578063ddca3f431461020e578063f2fde38b146102395761009c565b806312065fe01461009e57806315c18d4a146100c95780632fbed8311461010d57806369fe0e2d14610129578063715018a6146101665761009c565b3661009c57005b005b3480156100aa57600080fd5b506100b3610262565b6040516100c09190611565565b60405180910390f35b3480156100d557600080fd5b506100f060048036038101906100eb9190611079565b6102e6565b60405161010498979695949392919061140f565b60405180910390f35b610127600480360381019061012291906110b9565b61078b565b005b34801561013557600080fd5b50610150600480360381019061014b919061124f565b6109f2565b60405161015d91906113f4565b60405180910390f35b34801561017257600080fd5b5061017b610a80565b005b34801561018957600080fd5b50610192610b08565b60405161019f91906113d9565b60405180910390f35b3480156101b457600080fd5b506101cf60048036038101906101ca919061104c565b610b31565b6040516101dc9190611565565b60405180910390f35b3480156101f157600080fd5b5061020c60048036038101906102079190611079565b610b7d565b005b34801561021a57600080fd5b50610223610d45565b6040516102309190611565565b60405180910390f35b34801561024557600080fd5b50610260600480360381019061025b919061104c565b610d4b565b005b600061026c610e43565b73ffffffffffffffffffffffffffffffffffffffff1661028a610b08565b73ffffffffffffffffffffffffffffffffffffffff16146102e0576040517f08c379a00000000000000000000000000000000000000000000000000000000081526004016102d790611545565b60405180910390fd5b47905090565b6002602052816000526040600020818154811061030257600080fd5b90600052602060002090600802016000915091505080600001805461032690611687565b80601f016020809104026020016040519081016040528092919081815260200182805461035290611687565b801561039f5780601f106103745761010080835404028352916020019161039f565b820191906000526020600020905b81548152906001019060200180831161038257829003601f168201915b5050505050908060010180546103b490611687565b80601f01602080910402602001604051908101604052809291908181526020018280546103e090611687565b801561042d5780601f106104025761010080835404028352916020019161042d565b820191906000526020600020905b81548152906001019060200180831161041057829003601f168201915b50505050509080600201805461044290611687565b80601f016020809104026020016040519081016040528092919081815260200182805461046e90611687565b80156104bb5780601f10610490576101008083540402835291602001916104bb565b820191906000526020600020905b81548152906001019060200180831161049e57829003601f168201915b5050505050908060030180546104d090611687565b80601f01602080910402602001604051908101604052809291908181526020018280546104fc90611687565b80156105495780601f1061051e57610100808354040283529160200191610549565b820191906000526020600020905b81548152906001019060200180831161052c57829003601f168201915b50505050509080600401805461055e90611687565b80601f016020809104026020016040519081016040528092919081815260200182805461058a90611687565b80156105d75780601f106105ac576101008083540402835291602001916105d7565b820191906000526020600020905b8154815290600101906020018083116105ba57829003601f168201915b5050505050908060050180546105ec90611687565b80601f016020809104026020016040519081016040528092919081815260200182805461061890611687565b80156106655780601f1061063a57610100808354040283529160200191610665565b820191906000526020600020905b81548152906001019060200180831161064857829003601f168201915b50505050509080600601805461067a90611687565b80601f01602080910402602001604051908101604052809291908181526020018280546106a690611687565b80156106f35780601f106106c8576101008083540402835291602001916106f3565b820191906000526020600020905b8154815290600101906020018083116106d657829003601f168201915b50505050509080600701805461070890611687565b80601f016020809104026020016040519081016040528092919081815260200182805461073490611687565b80156107815780601f1061075657610100808354040283529160200191610781565b820191906000526020600020905b81548152906001019060200180831161076457829003601f168201915b5050505050905088565b60015434146107cf576040517f08c379a00000000000000000000000000000000000000000000000000000000081526004016107c6906114c5565b60405180910390fd5b60006040518061010001604052808a8152602001898152602001888152602001878152602001868152602001858152602001848152602001838152509050600260003373ffffffffffffffffffffffffffffffffffffffff1673ffffffffffffffffffffffffffffffffffffffff1681526020019081526020016000208190806001815401808255809150506001900390600052602060002090600802016000909190919091506000820151816000019080519060200190610892929190610f0f565b5060208201518160010190805190602001906108af929190610f0f565b5060408201518160020190805190602001906108cc929190610f0f565b5060608201518160030190805190602001906108e9929190610f0f565b506080820151816004019080519060200190610906929190610f0f565b5060a0820151816005019080519060200190610923929190610f0f565b5060c0820151816006019080519060200190610940929190610f0f565b5060e082015181600701908051906020019061095d929190610f0f565b5050508660405161096e91906113c2565b60405180910390208860405161098491906113c2565b60405180910390208a60405161099a91906113c2565b60405180910390207f1be3e40dbdc5acc3c68c5f15641053e2bdcaac17e5fdf697d6bbee1f79e6d9928c8c8c8c8c8c8c8c6040516109df98979695949392919061140f565b60405180910390a4505050505050505050565b60006109fc610e43565b73ffffffffffffffffffffffffffffffffffffffff16610a1a610b08565b73ffffffffffffffffffffffffffffffffffffffff1614610a70576040517f08c379a0000000000000000000000000000000000000000000000000000000008152600401610a6790611545565b60405180910390fd5b8160018190555060019050919050565b610a88610e43565b73ffffffffffffffffffffffffffffffffffffffff16610aa6610b08565b73ffffffffffffffffffffffffffffffffffffffff1614610afc576040517f08c379a0000000000000000000000000000000000000000000000000000000008152600401610af390611545565b60405180910390fd5b610b066000610e4b565b565b60008060009054906101000a900473ffffffffffffffffffffffffffffffffffffffff16905090565b6000600260008373ffffffffffffffffffffffffffffffffffffffff1673ffffffffffffffffffffffffffffffffffffffff168152602001908152602001600020805490509050919050565b610b85610e43565b73ffffffffffffffffffffffffffffffffffffffff16610ba3610b08565b73ffffffffffffffffffffffffffffffffffffffff1614610bf9576040517f08c379a0000000000000000000000000000000000000000000000000000000008152600401610bf090611545565b60405180910390fd5b600073ffffffffffffffffffffffffffffffffffffffff168273ffffffffffffffffffffffffffffffffffffffff161415610c69576040517f08c379a0000000000000000000000000000000000000000000000000000000008152600401610c6090611505565b60405180910390fd5b80471015610cac576040517f08c379a0000000000000000000000000000000000000000000000000000000008152600401610ca390611525565b60405180910390fd5b8173ffffffffffffffffffffffffffffffffffffffff166108fc829081150290604051600060405180830381858888f19350505050158015610cf2573d6000803e3d6000fd5b508173ffffffffffffffffffffffffffffffffffffffff167fb98a26c1d0427d0e3492e749861c7795bed8f6e7599a65143b5903942e611bb082604051610d399190611565565b60405180910390a25050565b60015481565b610d53610e43565b73ffffffffffffffffffffffffffffffffffffffff16610d71610b08565b73ffffffffffffffffffffffffffffffffffffffff1614610dc7576040517f08c379a0000000000000000000000000000000000000000000000000000000008152600401610dbe90611545565b60405180910390fd5b600073ffffffffffffffffffffffffffffffffffffffff168173ffffffffffffffffffffffffffffffffffffffff161415610e37576040517f08c379a0000000000000000000000000000000000000000000000000000000008152600401610e2e906114e5565b60405180910390fd5b610e4081610e4b565b50565b600033905090565b60008060009054906101000a900473ffffffffffffffffffffffffffffffffffffffff169050816000806101000a81548173ffffffffffffffffffffffffffffffffffffffff021916908373ffffffffffffffffffffffffffffffffffffffff1602179055508173ffffffffffffffffffffffffffffffffffffffff168173ffffffffffffffffffffffffffffffffffffffff167f8be0079c531659141344cd1fd0a4f28419497f9722a3daafe3b4186f6b6457e060405160405180910390a35050565b828054610f1b90611687565b90600052602060002090601f016020900481019282610f3d5760008555610f84565b82601f10610f5657805160ff1916838001178555610f84565b82800160010185558215610f84579182015b82811115610f83578251825591602001919060010190610f68565b5b509050610f919190610f95565b5090565b5b80821115610fae576000816000905550600101610f96565b5090565b6000610fc5610fc0846115a5565b611580565b905082815260208101848484011115610fe157610fe061174d565b5b610fec848285611645565b509392505050565b60008135905061100381611860565b92915050565b600082601f83011261101e5761101d611748565b5b813561102e848260208601610fb2565b91505092915050565b60008135905061104681611877565b92915050565b60006020828403121561106257611061611757565b5b600061107084828501610ff4565b91505092915050565b600080604083850312156110905761108f611757565b5b600061109e85828601610ff4565b92505060206110af85828601611037565b9150509250929050565b600080600080600080600080610100898b0312156110da576110d9611757565b5b600089013567ffffffffffffffff8111156110f8576110f7611752565b5b6111048b828c01611009565b985050602089013567ffffffffffffffff81111561112557611124611752565b5b6111318b828c01611009565b975050604089013567ffffffffffffffff81111561115257611151611752565b5b61115e8b828c01611009565b965050606089013567ffffffffffffffff81111561117f5761117e611752565b5b61118b8b828c01611009565b955050608089013567ffffffffffffffff8111156111ac576111ab611752565b5b6111b88b828c01611009565b94505060a089013567ffffffffffffffff8111156111d9576111d8611752565b5b6111e58b828c01611009565b93505060c089013567ffffffffffffffff81111561120657611205611752565b5b6112128b828c01611009565b92505060e089013567ffffffffffffffff81111561123357611232611752565b5b61123f8b828c01611009565b9150509295985092959890939650565b60006020828403121561126557611264611757565b5b600061127384828501611037565b91505092915050565b611285816115fd565b82525050565b6112948161160f565b82525050565b60006112a5826115d6565b6112af81856115e1565b93506112bf818560208601611654565b6112c88161175c565b840191505092915050565b60006112de826115d6565b6112e881856115f2565b93506112f8818560208601611654565b80840191505092915050565b6000611311601d836115e1565b915061131c8261176d565b602082019050919050565b60006113346026836115e1565b915061133f82611796565b604082019050919050565b6000611357601c836115e1565b9150611362826117e5565b602082019050919050565b600061137a601f836115e1565b91506113858261180e565b602082019050919050565b600061139d6020836115e1565b91506113a882611837565b602082019050919050565b6113bc8161163b565b82525050565b60006113ce82846112d3565b915081905092915050565b60006020820190506113ee600083018461127c565b92915050565b6000602082019050611409600083018461128b565b92915050565b600061010082019050818103600083015261142a818b61129a565b9050818103602083015261143e818a61129a565b90508181036040830152611452818961129a565b90508181036060830152611466818861129a565b9050818103608083015261147a818761129a565b905081810360a083015261148e818661129a565b905081810360c08301526114a2818561129a565b905081810360e08301526114b6818461129a565b90509998505050505050505050565b600060208201905081810360008301526114de81611304565b9050919050565b600060208201905081810360008301526114fe81611327565b9050919050565b6000602082019050818103600083015261151e8161134a565b9050919050565b6000602082019050818103600083015261153e8161136d565b9050919050565b6000602082019050818103600083015261155e81611390565b9050919050565b600060208201905061157a60008301846113b3565b92915050565b600061158a61159b565b905061159682826116b9565b919050565b6000604051905090565b600067ffffffffffffffff8211156115c0576115bf611719565b5b6115c98261175c565b9050602081019050919050565b600081519050919050565b600082825260208201905092915050565b600081905092915050565b60006116088261161b565b9050919050565b60008115159050919050565b600073ffffffffffffffffffffffffffffffffffffffff82169050919050565b6000819050919050565b82818337600083830152505050565b60005b83811015611672578082015181840152602081019050611657565b83811115611681576000848401525b50505050565b6000600282049050600182168061169f57607f821691505b602082108114156116b3576116b26116ea565b5b50919050565b6116c28261175c565b810181811067ffffffffffffffff821117156116e1576116e0611719565b5b80604052505050565b7f4e487b7100000000000000000000000000000000000000000000000000000000600052602260045260246000fd5b7f4e487b7100000000000000000000000000000000000000000000000000000000600052604160045260246000fd5b600080fd5b600080fd5b600080fd5b600080fd5b6000601f19601f8301169050919050565b7f76616c75652073686f756c6420626520657861637420746f2066656520000000600082015250565b7f4f776e61626c653a206e6577206f776e657220697320746865207a65726f206160008201527f6464726573730000000000000000000000000000000000000000000000000000602082015250565b7f7472616e7366657220746f20746865207a65726f206164647265737300000000600082015250565b7f7472616e7366657220616d6f756e7420657863656564732062616c616e636500600082015250565b7f4f776e61626c653a2063616c6c6572206973206e6f7420746865206f776e6572600082015250565b611869816115fd565b811461187457600080fd5b50565b6118808161163b565b811461188b57600080fd5b5056fea2646970667358221220dac110bf936e2259f2497eba7a4e5d6f6a69fce3f2b1265cfd92ea036156c1b664736f6c63430008070033",
      "opcodes": "PUSH1 0x80 PUSH1 0x40 MSTORE PUSH8 0x16345785D8A0000 PUSH1 0x1 SSTORE CALLVALUE DUP1 ISZERO PUSH2 0x1C JUMPI PUSH1 0x0 DUP1 REVERT JUMPDEST POP PUSH2 0x39 PUSH2 0x2E PUSH2 0x3E PUSH1 0x20 SHL PUSH1 0x20 SHR JUMP JUMPDEST PUSH2 0x46 PUSH1 0x20 SHL PUSH1 0x20 SHR JUMP JUMPDEST PUSH2 0x10A JUMP JUMPDEST PUSH1 0x0 CALLER SWAP1 POP SWAP1 JUMP JUMPDEST PUSH1 0x0 DUP1 PUSH1 0x0 SWAP1 SLOAD SWAP1 PUSH2 0x100 EXP SWAP1 DIV PUSH20 0xFFFFFFFFFFFFFFFFFFFFFFFFFFFFFFFFFFFFFFFF AND SWAP1 POP DUP2 PUSH1 0x0 DUP1 PUSH2 0x100 EXP DUP2 SLOAD DUP2 PUSH20 0xFFFFFFFFFFFFFFFFFFFFFFFFFFFFFFFFFFFFFFFF MUL NOT AND SWAP1 DUP4 PUSH20 0xFFFFFFFFFFFFFFFFFFFFFFFFFFFFFFFFFFFFFFFF AND MUL OR SWAP1 SSTORE POP DUP2 PUSH20 0xFFFFFFFFFFFFFFFFFFFFFFFFFFFFFFFFFFFFFFFF AND DUP2 PUSH20 0xFFFFFFFFFFFFFFFFFFFFFFFFFFFFFFFFFFFFFFFF AND PUSH32 0x8BE0079C531659141344CD1FD0A4F28419497F9722A3DAAFE3B4186F6B6457E0 PUSH1 0x40 MLOAD PUSH1 0x40 MLOAD DUP1 SWAP2 SUB SWAP1 LOG3 POP POP JUMP JUMPDEST PUSH2 0x18C4 DUP1 PUSH2 0x119 PUSH1 0x0 CODECOPY PUSH1 0x0 RETURN INVALID PUSH1 0x80 PUSH1 0x40 MSTORE PUSH1 0x4 CALLDATASIZE LT PUSH2 0x95 JUMPI PUSH1 0x0 CALLDATALOAD PUSH1 0xE0 SHR DUP1 PUSH4 0x8DA5CB5B GT PUSH2 0x59 JUMPI DUP1 PUSH4 0x8DA5CB5B EQ PUSH2 0x17D JUMPI DUP1 PUSH4 0xA12BCBE5 EQ PUSH2 0x1A8 JUMPI DUP1 PUSH4 0xA9059CBB EQ PUSH2 0x1E5 JUMPI DUP1 PUSH4 0xDDCA3F43 EQ PUSH2 0x20E JUMPI DUP1 PUSH4 0xF2FDE38B EQ PUSH2 0x239 JUMPI PUSH2 0x9C JUMP JUMPDEST DUP1 PUSH4 0x12065FE0 EQ PUSH2 0x9E JUMPI DUP1 PUSH4 0x15C18D4A EQ PUSH2 0xC9 JUMPI DUP1 PUSH4 0x2FBED831 EQ PUSH2 0x10D JUMPI DUP1 PUSH4 0x69FE0E2D EQ PUSH2 0x129 JUMPI DUP1 PUSH4 0x715018A6 EQ PUSH2 0x166 JUMPI PUSH2 0x9C JUMP JUMPDEST CALLDATASIZE PUSH2 0x9C JUMPI STOP JUMPDEST STOP JUMPDEST CALLVALUE DUP1 ISZERO PUSH2 0xAA JUMPI PUSH1 0x0 DUP1 REVERT JUMPDEST POP PUSH2 0xB3 PUSH2 0x262 JUMP JUMPDEST PUSH1 0x40 MLOAD PUSH2 0xC0 SWAP2 SWAP1 PUSH2 0x1565 JUMP JUMPDEST PUSH1 0x40 MLOAD DUP1 SWAP2 SUB SWAP1 RETURN JUMPDEST CALLVALUE DUP1 ISZERO PUSH2 0xD5 JUMPI PUSH1 0x0 DUP1 REVERT JUMPDEST POP PUSH2 0xF0 PUSH1 0x4 DUP1 CALLDATASIZE SUB DUP2 ADD SWAP1 PUSH2 0xEB SWAP2 SWAP1 PUSH2 0x1079 JUMP JUMPDEST PUSH2 0x2E6 JUMP JUMPDEST PUSH1 0x40 MLOAD PUSH2 0x104 SWAP9 SWAP8 SWAP7 SWAP6 SWAP5 SWAP4 SWAP3 SWAP2 SWAP1 PUSH2 0x140F JUMP JUMPDEST PUSH1 0x40 MLOAD DUP1 SWAP2 SUB SWAP1 RETURN JUMPDEST PUSH2 0x127 PUSH1 0x4 DUP1 CALLDATASIZE SUB DUP2 ADD SWAP1 PUSH2 0x122 SWAP2 SWAP1 PUSH2 0x10B9 JUMP JUMPDEST PUSH2 0x78B JUMP JUMPDEST STOP JUMPDEST CALLVALUE DUP1 ISZERO PUSH2 0x135 JUMPI PUSH1 0x0 DUP1 REVERT JUMPDEST POP PUSH2 0x150 PUSH1 0x4 DUP1 CALLDATASIZE SUB DUP2 ADD SWAP1 PUSH2 0x14B SWAP2 SWAP1 PUSH2 0x124F JUMP JUMPDEST PUSH2 0x9F2 JUMP JUMPDEST PUSH1 0x40 MLOAD PUSH2 0x15D SWAP2 SWAP1 PUSH2 0x13F4 JUMP JUMPDEST PUSH1 0x40 MLOAD DUP1 SWAP2 SUB SWAP1 RETURN JUMPDEST CALLVALUE DUP1 ISZERO PUSH2 0x172 JUMPI PUSH1 0x0 DUP1 REVERT JUMPDEST POP PUSH2 0x17B PUSH2 0xA80 JUMP JUMPDEST STOP JUMPDEST CALLVALUE DUP1 ISZERO PUSH2 0x189 JUMPI PUSH1 0x0 DUP1 REVERT JUMPDEST POP PUSH2 0x192 PUSH2 0xB08 JUMP JUMPDEST PUSH1 0x40 MLOAD PUSH2 0x19F SWAP2 SWAP1 PUSH2 0x13D9 JUMP JUMPDEST PUSH1 0x40 MLOAD DUP1 SWAP2 SUB SWAP1 RETURN JUMPDEST CALLVALUE DUP1 ISZERO PUSH2 0x1B4 JUMPI PUSH1 0x0 DUP1 REVERT JUMPDEST POP PUSH2 0x1CF PUSH1 0x4 DUP1 CALLDATASIZE SUB DUP2 ADD SWAP1 PUSH2 0x1CA SWAP2 SWAP1 PUSH2 0x104C JUMP JUMPDEST PUSH2 0xB31 JUMP JUMPDEST PUSH1 0x40 MLOAD PUSH2 0x1DC SWAP2 SWAP1 PUSH2 0x1565 JUMP JUMPDEST PUSH1 0x40 MLOAD DUP1 SWAP2 SUB SWAP1 RETURN JUMPDEST CALLVALUE DUP1 ISZERO PUSH2 0x1F1 JUMPI PUSH1 0x0 DUP1 REVERT JUMPDEST POP PUSH2 0x20C PUSH1 0x4 DUP1 CALLDATASIZE SUB DUP2 ADD SWAP1 PUSH2 0x207 SWAP2 SWAP1 PUSH2 0x1079 JUMP JUMPDEST PUSH2 0xB7D JUMP JUMPDEST STOP JUMPDEST CALLVALUE DUP1 ISZERO PUSH2 0x21A JUMPI PUSH1 0x0 DUP1 REVERT JUMPDEST POP PUSH2 0x223 PUSH2 0xD45 JUMP JUMPDEST PUSH1 0x40 MLOAD PUSH2 0x230 SWAP2 SWAP1 PUSH2 0x1565 JUMP JUMPDEST PUSH1 0x40 MLOAD DUP1 SWAP2 SUB SWAP1 RETURN JUMPDEST CALLVALUE DUP1 ISZERO PUSH2 0x245 JUMPI PUSH1 0x0 DUP1 REVERT JUMPDEST POP PUSH2 0x260 PUSH1 0x4 DUP1 CALLDATASIZE SUB DUP2 ADD SWAP1 PUSH2 0x25B SWAP2 SWAP1 PUSH2 0x104C JUMP JUMPDEST PUSH2 0xD4B JUMP JUMPDEST STOP JUMPDEST PUSH1 0x0 PUSH2 0x26C PUSH2 0xE43 JUMP JUMPDEST PUSH20 0xFFFFFFFFFFFFFFFFFFFFFFFFFFFFFFFFFFFFFFFF AND PUSH2 0x28A PUSH2 0xB08 JUMP JUMPDEST PUSH20 0xFFFFFFFFFFFFFFFFFFFFFFFFFFFFFFFFFFFFFFFF AND EQ PUSH2 0x2E0 JUMPI PUSH1 0x40 MLOAD PUSH32 0x8C379A000000000000000000000000000000000000000000000000000000000 DUP2 MSTORE PUSH1 0x4 ADD PUSH2 0x2D7 SWAP1 PUSH2 0x1545 JUMP JUMPDEST PUSH1 0x40 MLOAD DUP1 SWAP2 SUB SWAP1 REVERT JUMPDEST SELFBALANCE SWAP1 POP SWAP1 JUMP JUMPDEST PUSH1 0x2 PUSH1 0x20 MSTORE DUP2 PUSH1 0x0 MSTORE PUSH1 0x40 PUSH1 0x0 KECCAK256 DUP2 DUP2 SLOAD DUP2 LT PUSH2 0x302 JUMPI PUSH1 0x0 DUP1 REVERT JUMPDEST SWAP1 PUSH1 0x0 MSTORE PUSH1 0x20 PUSH1 0x0 KECCAK256 SWAP1 PUSH1 0x8 MUL ADD PUSH1 0x0 SWAP2 POP SWAP2 POP POP DUP1 PUSH1 0x0 ADD DUP1 SLOAD PUSH2 0x326 SWAP1 PUSH2 0x1687 JUMP JUMPDEST DUP1 PUSH1 0x1F ADD PUSH1 0x20 DUP1 SWAP2 DIV MUL PUSH1 0x20 ADD PUSH1 0x40 MLOAD SWAP1 DUP2 ADD PUSH1 0x40 MSTORE DUP1 SWAP3 SWAP2 SWAP1 DUP2 DUP2 MSTORE PUSH1 0x20 ADD DUP3 DUP1 SLOAD PUSH2 0x352 SWAP1 PUSH2 0x1687 JUMP JUMPDEST DUP1 ISZERO PUSH2 0x39F JUMPI DUP1 PUSH1 0x1F LT PUSH2 0x374 JUMPI PUSH2 0x100 DUP1 DUP4 SLOAD DIV MUL DUP4 MSTORE SWAP2 PUSH1 0x20 ADD SWAP2 PUSH2 0x39F JUMP JUMPDEST DUP3 ADD SWAP2 SWAP1 PUSH1 0x0 MSTORE PUSH1 0x20 PUSH1 0x0 KECCAK256 SWAP1 JUMPDEST DUP2 SLOAD DUP2 MSTORE SWAP1 PUSH1 0x1 ADD SWAP1 PUSH1 0x20 ADD DUP1 DUP4 GT PUSH2 0x382 JUMPI DUP3 SWAP1 SUB PUSH1 0x1F AND DUP3 ADD SWAP2 JUMPDEST POP POP POP POP POP SWAP1 DUP1 PUSH1 0x1 ADD DUP1 SLOAD PUSH2 0x3B4 SWAP1 PUSH2 0x1687 JUMP JUMPDEST DUP1 PUSH1 0x1F ADD PUSH1 0x20 DUP1 SWAP2 DIV MUL PUSH1 0x20 ADD PUSH1 0x40 MLOAD SWAP1 DUP2 ADD PUSH1 0x40 MSTORE DUP1 SWAP3 SWAP2 SWAP1 DUP2 DUP2 MSTORE PUSH1 0x20 ADD DUP3 DUP1 SLOAD PUSH2 0x3E0 SWAP1 PUSH2 0x1687 JUMP JUMPDEST DUP1 ISZERO PUSH2 0x42D JUMPI DUP1 PUSH1 0x1F LT PUSH2 0x402 JUMPI PUSH2 0x100 DUP1 DUP4 SLOAD DIV MUL DUP4 MSTORE SWAP2 PUSH1 0x20 ADD SWAP2 PUSH2 0x42D JUMP JUMPDEST DUP3 ADD SWAP2 SWAP1 PUSH1 0x0 MSTORE PUSH1 0x20 PUSH1 0x0 KECCAK256 SWAP1 JUMPDEST DUP2 SLOAD DUP2 MSTORE SWAP1 PUSH1 0x1 ADD SWAP1 PUSH1 0x20 ADD DUP1 DUP4 GT PUSH2 0x410 JUMPI DUP3 SWAP1 SUB PUSH1 0x1F AND DUP3 ADD SWAP2 JUMPDEST POP POP POP POP POP SWAP1 DUP1 PUSH1 0x2 ADD DUP1 SLOAD PUSH2 0x442 SWAP1 PUSH2 0x1687 JUMP JUMPDEST DUP1 PUSH1 0x1F ADD PUSH1 0x20 DUP1 SWAP2 DIV MUL PUSH1 0x20 ADD PUSH1 0x40 MLOAD SWAP1 DUP2 ADD PUSH1 0x40 MSTORE DUP1 SWAP3 SWAP2 SWAP1 DUP2 DUP2 MSTORE PUSH1 0x20 ADD DUP3 DUP1 SLOAD PUSH2 0x46E SWAP1 PUSH2 0x1687 JUMP JUMPDEST DUP1 ISZERO PUSH2 0x4BB JUMPI DUP1 PUSH1 0x1F LT PUSH2 0x490 JUMPI PUSH2 0x100 DUP1 DUP4 SLOAD DIV MUL DUP4 MSTORE SWAP2 PUSH1 0x20 ADD SWAP2 PUSH2 0x4BB JUMP JUMPDEST DUP3 ADD SWAP2 SWAP1 PUSH1 0x0 MSTORE PUSH1 0x20 PUSH1 0x0 KECCAK256 SWAP1 JUMPDEST DUP2 SLOAD DUP2 MSTORE SWAP1 PUSH1 0x1 ADD SWAP1 PUSH1 0x20 ADD DUP1 DUP4 GT PUSH2 0x49E JUMPI DUP3 SWAP1 SUB PUSH1 0x1F AND DUP3 ADD SWAP2 JUMPDEST POP POP POP POP POP SWAP1 DUP1 PUSH1 0x3 ADD DUP1 SLOAD PUSH2 0x4D0 SWAP1 PUSH2 0x1687 JUMP JUMPDEST DUP1 PUSH1 0x1F ADD PUSH1 0x20 DUP1 SWAP2 DIV MUL PUSH1 0x20 ADD PUSH1 0x40 MLOAD SWAP1 DUP2 ADD PUSH1 0x40 MSTORE DUP1 SWAP3 SWAP2 SWAP1 DUP2 DUP2 MSTORE PUSH1 0x20 ADD DUP3 DUP1 SLOAD PUSH2 0x4FC SWAP1 PUSH2 0x1687 JUMP JUMPDEST DUP1 ISZERO PUSH2 0x549 JUMPI DUP1 PUSH1 0x1F LT PUSH2 0x51E JUMPI PUSH2 0x100 DUP1 DUP4 SLOAD DIV MUL DUP4 MSTORE SWAP2 PUSH1 0x20 ADD SWAP2 PUSH2 0x549 JUMP JUMPDEST DUP3 ADD SWAP2 SWAP1 PUSH1 0x0 MSTORE PUSH1 0x20 PUSH1 0x0 KECCAK256 SWAP1 JUMPDEST DUP2 SLOAD DUP2 MSTORE SWAP1 PUSH1 0x1 ADD SWAP1 PUSH1 0x20 ADD DUP1 DUP4 GT PUSH2 0x52C JUMPI DUP3 SWAP1 SUB PUSH1 0x1F AND DUP3 ADD SWAP2 JUMPDEST POP POP POP POP POP SWAP1 DUP1 PUSH1 0x4 ADD DUP1 SLOAD PUSH2 0x55E SWAP1 PUSH2 0x1687 JUMP JUMPDEST DUP1 PUSH1 0x1F ADD PUSH1 0x20 DUP1 SWAP2 DIV MUL PUSH1 0x20 ADD PUSH1 0x40 MLOAD SWAP1 DUP2 ADD PUSH1 0x40 MSTORE DUP1 SWAP3 SWAP2 SWAP1 DUP2 DUP2 MSTORE PUSH1 0x20 ADD DUP3 DUP1 SLOAD PUSH2 0x58A SWAP1 PUSH2 0x1687 JUMP JUMPDEST DUP1 ISZERO PUSH2 0x5D7 JUMPI DUP1 PUSH1 0x1F LT PUSH2 0x5AC JUMPI PUSH2 0x100 DUP1 DUP4 SLOAD DIV MUL DUP4 MSTORE SWAP2 PUSH1 0x20 ADD SWAP2 PUSH2 0x5D7 JUMP JUMPDEST DUP3 ADD SWAP2 SWAP1 PUSH1 0x0 MSTORE PUSH1 0x20 PUSH1 0x0 KECCAK256 SWAP1 JUMPDEST DUP2 SLOAD DUP2 MSTORE SWAP1 PUSH1 0x1 ADD SWAP1 PUSH1 0x20 ADD DUP1 DUP4 GT PUSH2 0x5BA JUMPI DUP3 SWAP1 SUB PUSH1 0x1F AND DUP3 ADD SWAP2 JUMPDEST POP POP POP POP POP SWAP1 DUP1 PUSH1 0x5 ADD DUP1 SLOAD PUSH2 0x5EC SWAP1 PUSH2 0x1687 JUMP JUMPDEST DUP1 PUSH1 0x1F ADD PUSH1 0x20 DUP1 SWAP2 DIV MUL PUSH1 0x20 ADD PUSH1 0x40 MLOAD SWAP1 DUP2 ADD PUSH1 0x40 MSTORE DUP1 SWAP3 SWAP2 SWAP1 DUP2 DUP2 MSTORE PUSH1 0x20 ADD DUP3 DUP1 SLOAD PUSH2 0x618 SWAP1 PUSH2 0x1687 JUMP JUMPDEST DUP1 ISZERO PUSH2 0x665 JUMPI DUP1 PUSH1 0x1F LT PUSH2 0x63A JUMPI PUSH2 0x100 DUP1 DUP4 SLOAD DIV MUL DUP4 MSTORE SWAP2 PUSH1 0x20 ADD SWAP2 PUSH2 0x665 JUMP JUMPDEST DUP3 ADD SWAP2 SWAP1 PUSH1 0x0 MSTORE PUSH1 0x20 PUSH1 0x0 KECCAK256 SWAP1 JUMPDEST DUP2 SLOAD DUP2 MSTORE SWAP1 PUSH1 0x1 ADD SWAP1 PUSH1 0x20 ADD DUP1 DUP4 GT PUSH2 0x648 JUMPI DUP3 SWAP1 SUB PUSH1 0x1F AND DUP3 ADD SWAP2 JUMPDEST POP POP POP POP POP SWAP1 DUP1 PUSH1 0x6 ADD DUP1 SLOAD PUSH2 0x67A SWAP1 PUSH2 0x1687 JUMP JUMPDEST DUP1 PUSH1 0x1F ADD PUSH1 0x20 DUP1 SWAP2 DIV MUL PUSH1 0x20 ADD PUSH1 0x40 MLOAD SWAP1 DUP2 ADD PUSH1 0x40 MSTORE DUP1 SWAP3 SWAP2 SWAP1 DUP2 DUP2 MSTORE PUSH1 0x20 ADD DUP3 DUP1 SLOAD PUSH2 0x6A6 SWAP1 PUSH2 0x1687 JUMP JUMPDEST DUP1 ISZERO PUSH2 0x6F3 JUMPI DUP1 PUSH1 0x1F LT PUSH2 0x6C8 JUMPI PUSH2 0x100 DUP1 DUP4 SLOAD DIV MUL DUP4 MSTORE SWAP2 PUSH1 0x20 ADD SWAP2 PUSH2 0x6F3 JUMP JUMPDEST DUP3 ADD SWAP2 SWAP1 PUSH1 0x0 MSTORE PUSH1 0x20 PUSH1 0x0 KECCAK256 SWAP1 JUMPDEST DUP2 SLOAD DUP2 MSTORE SWAP1 PUSH1 0x1 ADD SWAP1 PUSH1 0x20 ADD DUP1 DUP4 GT PUSH2 0x6D6 JUMPI DUP3 SWAP1 SUB PUSH1 0x1F AND DUP3 ADD SWAP2 JUMPDEST POP POP POP POP POP SWAP1 DUP1 PUSH1 0x7 ADD DUP1 SLOAD PUSH2 0x708 SWAP1 PUSH2 0x1687 JUMP JUMPDEST DUP1 PUSH1 0x1F ADD PUSH1 0x20 DUP1 SWAP2 DIV MUL PUSH1 0x20 ADD PUSH1 0x40 MLOAD SWAP1 DUP2 ADD PUSH1 0x40 MSTORE DUP1 SWAP3 SWAP2 SWAP1 DUP2 DUP2 MSTORE PUSH1 0x20 ADD DUP3 DUP1 SLOAD PUSH2 0x734 SWAP1 PUSH2 0x1687 JUMP JUMPDEST DUP1 ISZERO PUSH2 0x781 JUMPI DUP1 PUSH1 0x1F LT PUSH2 0x756 JUMPI PUSH2 0x100 DUP1 DUP4 SLOAD DIV MUL DUP4 MSTORE SWAP2 PUSH1 0x20 ADD SWAP2 PUSH2 0x781 JUMP JUMPDEST DUP3 ADD SWAP2 SWAP1 PUSH1 0x0 MSTORE PUSH1 0x20 PUSH1 0x0 KECCAK256 SWAP1 JUMPDEST DUP2 SLOAD DUP2 MSTORE SWAP1 PUSH1 0x1 ADD SWAP1 PUSH1 0x20 ADD DUP1 DUP4 GT PUSH2 0x764 JUMPI DUP3 SWAP1 SUB PUSH1 0x1F AND DUP3 ADD SWAP2 JUMPDEST POP POP POP POP POP SWAP1 POP DUP9 JUMP JUMPDEST PUSH1 0x1 SLOAD CALLVALUE EQ PUSH2 0x7CF JUMPI PUSH1 0x40 MLOAD PUSH32 0x8C379A000000000000000000000000000000000000000000000000000000000 DUP2 MSTORE PUSH1 0x4 ADD PUSH2 0x7C6 SWAP1 PUSH2 0x14C5 JUMP JUMPDEST PUSH1 0x40 MLOAD DUP1 SWAP2 SUB SWAP1 REVERT JUMPDEST PUSH1 0x0 PUSH1 0x40 MLOAD DUP1 PUSH2 0x100 ADD PUSH1 0x40 MSTORE DUP1 DUP11 DUP2 MSTORE PUSH1 0x20 ADD DUP10 DUP2 MSTORE PUSH1 0x20 ADD DUP9 DUP2 MSTORE PUSH1 0x20 ADD DUP8 DUP2 MSTORE PUSH1 0x20 ADD DUP7 DUP2 MSTORE PUSH1 0x20 ADD DUP6 DUP2 MSTORE PUSH1 0x20 ADD DUP5 DUP2 MSTORE PUSH1 0x20 ADD DUP4 DUP2 MSTORE POP SWAP1 POP PUSH1 0x2 PUSH1 0x0 CALLER PUSH20 0xFFFFFFFFFFFFFFFFFFFFFFFFFFFFFFFFFFFFFFFF AND PUSH20 0xFFFFFFFFFFFFFFFFFFFFFFFFFFFFFFFFFFFFFFFF AND DUP2 MSTORE PUSH1 0x20 ADD SWAP1 DUP2 MSTORE PUSH1 0x20 ADD PUSH1 0x0 KECCAK256 DUP2 SWAP1 DUP1 PUSH1 0x1 DUP2 SLOAD ADD DUP1 DUP3 SSTORE DUP1 SWAP2 POP POP PUSH1 0x1 SWAP1 SUB SWAP1 PUSH1 0x0 MSTORE PUSH1 0x20 PUSH1 0x0 KECCAK256 SWAP1 PUSH1 0x8 MUL ADD PUSH1 0x0 SWAP1 SWAP2 SWAP1 SWAP2 SWAP1 SWAP2 POP PUSH1 0x0 DUP3 ADD MLOAD DUP2 PUSH1 0x0 ADD SWAP1 DUP1 MLOAD SWAP1 PUSH1 0x20 ADD SWAP1 PUSH2 0x892 SWAP3 SWAP2 SWAP1 PUSH2 0xF0F JUMP JUMPDEST POP PUSH1 0x20 DUP3 ADD MLOAD DUP2 PUSH1 0x1 ADD SWAP1 DUP1 MLOAD SWAP1 PUSH1 0x20 ADD SWAP1 PUSH2 0x8AF SWAP3 SWAP2 SWAP1 PUSH2 0xF0F JUMP JUMPDEST POP PUSH1 0x40 DUP3 ADD MLOAD DUP2 PUSH1 0x2 ADD SWAP1 DUP1 MLOAD SWAP1 PUSH1 0x20 ADD SWAP1 PUSH2 0x8CC SWAP3 SWAP2 SWAP1 PUSH2 0xF0F JUMP JUMPDEST POP PUSH1 0x60 DUP3 ADD MLOAD DUP2 PUSH1 0x3 ADD SWAP1 DUP1 MLOAD SWAP1 PUSH1 0x20 ADD SWAP1 PUSH2 0x8E9 SWAP3 SWAP2 SWAP1 PUSH2 0xF0F JUMP JUMPDEST POP PUSH1 0x80 DUP3 ADD MLOAD DUP2 PUSH1 0x4 ADD SWAP1 DUP1 MLOAD SWAP1 PUSH1 0x20 ADD SWAP1 PUSH2 0x906 SWAP3 SWAP2 SWAP1 PUSH2 0xF0F JUMP JUMPDEST POP PUSH1 0xA0 DUP3 ADD MLOAD DUP2 PUSH1 0x5 ADD SWAP1 DUP1 MLOAD SWAP1 PUSH1 0x20 ADD SWAP1 PUSH2 0x923 SWAP3 SWAP2 SWAP1 PUSH2 0xF0F JUMP JUMPDEST POP PUSH1 0xC0 DUP3 ADD MLOAD DUP2 PUSH1 0x6 ADD SWAP1 DUP1 MLOAD SWAP1 PUSH1 0x20 ADD SWAP1 PUSH2 0x940 SWAP3 SWAP2 SWAP1 PUSH2 0xF0F JUMP JUMPDEST POP PUSH1 0xE0 DUP3 ADD MLOAD DUP2 PUSH1 0x7 ADD SWAP1 DUP1 MLOAD SWAP1 PUSH1 0x20 ADD SWAP1 PUSH2 0x95D SWAP3 SWAP2 SWAP1 PUSH2 0xF0F JUMP JUMPDEST POP POP POP DUP7 PUSH1 0x40 MLOAD PUSH2 0x96E SWAP2 SWAP1 PUSH2 0x13C2 JUMP JUMPDEST PUSH1 0x40 MLOAD DUP1 SWAP2 SUB SWAP1 KECCAK256 DUP9 PUSH1 0x40 MLOAD PUSH2 0x984 SWAP2 SWAP1 PUSH2 0x13C2 JUMP JUMPDEST PUSH1 0x40 MLOAD DUP1 SWAP2 SUB SWAP1 KECCAK256 DUP11 PUSH1 0x40 MLOAD PUSH2 0x99A SWAP2 SWAP1 PUSH2 0x13C2 JUMP JUMPDEST PUSH1 0x40 MLOAD DUP1 SWAP2 SUB SWAP1 KECCAK256 PUSH32 0x1BE3E40DBDC5ACC3C68C5F15641053E2BDCAAC17E5FDF697D6BBEE1F79E6D992 DUP13 DUP13 DUP13 DUP13 DUP13 DUP13 DUP13 DUP13 PUSH1 0x40 MLOAD PUSH2 0x9DF SWAP9 SWAP8 SWAP7 SWAP6 SWAP5 SWAP4 SWAP3 SWAP2 SWAP1 PUSH2 0x140F JUMP JUMPDEST PUSH1 0x40 MLOAD DUP1 SWAP2 SUB SWAP1 LOG4 POP POP POP POP POP POP POP POP POP JUMP JUMPDEST PUSH1 0x0 PUSH2 0x9FC PUSH2 0xE43 JUMP JUMPDEST PUSH20 0xFFFFFFFFFFFFFFFFFFFFFFFFFFFFFFFFFFFFFFFF AND PUSH2 0xA1A PUSH2 0xB08 JUMP JUMPDEST PUSH20 0xFFFFFFFFFFFFFFFFFFFFFFFFFFFFFFFFFFFFFFFF AND EQ PUSH2 0xA70 JUMPI PUSH1 0x40 MLOAD PUSH32 0x8C379A000000000000000000000000000000000000000000000000000000000 DUP2 MSTORE PUSH1 0x4 ADD PUSH2 0xA67 SWAP1 PUSH2 0x1545 JUMP JUMPDEST PUSH1 0x40 MLOAD DUP1 SWAP2 SUB SWAP1 REVERT JUMPDEST DUP2 PUSH1 0x1 DUP2 SWAP1 SSTORE POP PUSH1 0x1 SWAP1 POP SWAP2 SWAP1 POP JUMP JUMPDEST PUSH2 0xA88 PUSH2 0xE43 JUMP JUMPDEST PUSH20 0xFFFFFFFFFFFFFFFFFFFFFFFFFFFFFFFFFFFFFFFF AND PUSH2 0xAA6 PUSH2 0xB08 JUMP JUMPDEST PUSH20 0xFFFFFFFFFFFFFFFFFFFFFFFFFFFFFFFFFFFFFFFF AND EQ PUSH2 0xAFC JUMPI PUSH1 0x40 MLOAD PUSH32 0x8C379A000000000000000000000000000000000000000000000000000000000 DUP2 MSTORE PUSH1 0x4 ADD PUSH2 0xAF3 SWAP1 PUSH2 0x1545 JUMP JUMPDEST PUSH1 0x40 MLOAD DUP1 SWAP2 SUB SWAP1 REVERT JUMPDEST PUSH2 0xB06 PUSH1 0x0 PUSH2 0xE4B JUMP JUMPDEST JUMP JUMPDEST PUSH1 0x0 DUP1 PUSH1 0x0 SWAP1 SLOAD SWAP1 PUSH2 0x100 EXP SWAP1 DIV PUSH20 0xFFFFFFFFFFFFFFFFFFFFFFFFFFFFFFFFFFFFFFFF AND SWAP1 POP SWAP1 JUMP JUMPDEST PUSH1 0x0 PUSH1 0x2 PUSH1 0x0 DUP4 PUSH20 0xFFFFFFFFFFFFFFFFFFFFFFFFFFFFFFFFFFFFFFFF AND PUSH20 0xFFFFFFFFFFFFFFFFFFFFFFFFFFFFFFFFFFFFFFFF AND DUP2 MSTORE PUSH1 0x20 ADD SWAP1 DUP2 MSTORE PUSH1 0x20 ADD PUSH1 0x0 KECCAK256 DUP1 SLOAD SWAP1 POP SWAP1 POP SWAP2 SWAP1 POP JUMP JUMPDEST PUSH2 0xB85 PUSH2 0xE43 JUMP JUMPDEST PUSH20 0xFFFFFFFFFFFFFFFFFFFFFFFFFFFFFFFFFFFFFFFF AND PUSH2 0xBA3 PUSH2 0xB08 JUMP JUMPDEST PUSH20 0xFFFFFFFFFFFFFFFFFFFFFFFFFFFFFFFFFFFFFFFF AND EQ PUSH2 0xBF9 JUMPI PUSH1 0x40 MLOAD PUSH32 0x8C379A000000000000000000000000000000000000000000000000000000000 DUP2 MSTORE PUSH1 0x4 ADD PUSH2 0xBF0 SWAP1 PUSH2 0x1545 JUMP JUMPDEST PUSH1 0x40 MLOAD DUP1 SWAP2 SUB SWAP1 REVERT JUMPDEST PUSH1 0x0 PUSH20 0xFFFFFFFFFFFFFFFFFFFFFFFFFFFFFFFFFFFFFFFF AND DUP3 PUSH20 0xFFFFFFFFFFFFFFFFFFFFFFFFFFFFFFFFFFFFFFFF AND EQ ISZERO PUSH2 0xC69 JUMPI PUSH1 0x40 MLOAD PUSH32 0x8C379A000000000000000000000000000000000000000000000000000000000 DUP2 MSTORE PUSH1 0x4 ADD PUSH2 0xC60 SWAP1 PUSH2 0x1505 JUMP JUMPDEST PUSH1 0x40 MLOAD DUP1 SWAP2 SUB SWAP1 REVERT JUMPDEST DUP1 SELFBALANCE LT ISZERO PUSH2 0xCAC JUMPI PUSH1 0x40 MLOAD PUSH32 0x8C379A000000000000000000000000000000000000000000000000000000000 DUP2 MSTORE PUSH1 0x4 ADD PUSH2 0xCA3 SWAP1 PUSH2 0x1525 JUMP JUMPDEST PUSH1 0x40 MLOAD DUP1 SWAP2 SUB SWAP1 REVERT JUMPDEST DUP2 PUSH20 0xFFFFFFFFFFFFFFFFFFFFFFFFFFFFFFFFFFFFFFFF AND PUSH2 0x8FC DUP3 SWAP1 DUP2 ISZERO MUL SWAP1 PUSH1 0x40 MLOAD PUSH1 0x0 PUSH1 0x40 MLOAD DUP1 DUP4 SUB DUP2 DUP6 DUP9 DUP9 CALL SWAP4 POP POP POP POP ISZERO DUP1 ISZERO PUSH2 0xCF2 JUMPI RETURNDATASIZE PUSH1 0x0 DUP1 RETURNDATACOPY RETURNDATASIZE PUSH1 0x0 REVERT JUMPDEST POP DUP2 PUSH20 0xFFFFFFFFFFFFFFFFFFFFFFFFFFFFFFFFFFFFFFFF AND PUSH32 0xB98A26C1D0427D0E3492E749861C7795BED8F6E7599A65143B5903942E611BB0 DUP3 PUSH1 0x40 MLOAD PUSH2 0xD39 SWAP2 SWAP1 PUSH2 0x1565 JUMP JUMPDEST PUSH1 0x40 MLOAD DUP1 SWAP2 SUB SWAP1 LOG2 POP POP JUMP JUMPDEST PUSH1 0x1 SLOAD DUP2 JUMP JUMPDEST PUSH2 0xD53 PUSH2 0xE43 JUMP JUMPDEST PUSH20 0xFFFFFFFFFFFFFFFFFFFFFFFFFFFFFFFFFFFFFFFF AND PUSH2 0xD71 PUSH2 0xB08 JUMP JUMPDEST PUSH20 0xFFFFFFFFFFFFFFFFFFFFFFFFFFFFFFFFFFFFFFFF AND EQ PUSH2 0xDC7 JUMPI PUSH1 0x40 MLOAD PUSH32 0x8C379A000000000000000000000000000000000000000000000000000000000 DUP2 MSTORE PUSH1 0x4 ADD PUSH2 0xDBE SWAP1 PUSH2 0x1545 JUMP JUMPDEST PUSH1 0x40 MLOAD DUP1 SWAP2 SUB SWAP1 REVERT JUMPDEST PUSH1 0x0 PUSH20 0xFFFFFFFFFFFFFFFFFFFFFFFFFFFFFFFFFFFFFFFF AND DUP2 PUSH20 0xFFFFFFFFFFFFFFFFFFFFFFFFFFFFFFFFFFFFFFFF AND EQ ISZERO PUSH2 0xE37 JUMPI PUSH1 0x40 MLOAD PUSH32 0x8C379A000000000000000000000000000000000000000000000000000000000 DUP2 MSTORE PUSH1 0x4 ADD PUSH2 0xE2E SWAP1 PUSH2 0x14E5 JUMP JUMPDEST PUSH1 0x40 MLOAD DUP1 SWAP2 SUB SWAP1 REVERT JUMPDEST PUSH2 0xE40 DUP2 PUSH2 0xE4B JUMP JUMPDEST POP JUMP JUMPDEST PUSH1 0x0 CALLER SWAP1 POP SWAP1 JUMP JUMPDEST PUSH1 0x0 DUP1 PUSH1 0x0 SWAP1 SLOAD SWAP1 PUSH2 0x100 EXP SWAP1 DIV PUSH20 0xFFFFFFFFFFFFFFFFFFFFFFFFFFFFFFFFFFFFFFFF AND SWAP1 POP DUP2 PUSH1 0x0 DUP1 PUSH2 0x100 EXP DUP2 SLOAD DUP2 PUSH20 0xFFFFFFFFFFFFFFFFFFFFFFFFFFFFFFFFFFFFFFFF MUL NOT AND SWAP1 DUP4 PUSH20 0xFFFFFFFFFFFFFFFFFFFFFFFFFFFFFFFFFFFFFFFF AND MUL OR SWAP1 SSTORE POP DUP2 PUSH20 0xFFFFFFFFFFFFFFFFFFFFFFFFFFFFFFFFFFFFFFFF AND DUP2 PUSH20 0xFFFFFFFFFFFFFFFFFFFFFFFFFFFFFFFFFFFFFFFF AND PUSH32 0x8BE0079C531659141344CD1FD0A4F28419497F9722A3DAAFE3B4186F6B6457E0 PUSH1 0x40 MLOAD PUSH1 0x40 MLOAD DUP1 SWAP2 SUB SWAP1 LOG3 POP POP JUMP JUMPDEST DUP3 DUP1 SLOAD PUSH2 0xF1B SWAP1 PUSH2 0x1687 JUMP JUMPDEST SWAP1 PUSH1 0x0 MSTORE PUSH1 0x20 PUSH1 0x0 KECCAK256 SWAP1 PUSH1 0x1F ADD PUSH1 0x20 SWAP1 DIV DUP2 ADD SWAP3 DUP3 PUSH2 0xF3D JUMPI PUSH1 0x0 DUP6 SSTORE PUSH2 0xF84 JUMP JUMPDEST DUP3 PUSH1 0x1F LT PUSH2 0xF56 JUMPI DUP1 MLOAD PUSH1 0xFF NOT AND DUP4 DUP1 ADD OR DUP6 SSTORE PUSH2 0xF84 JUMP JUMPDEST DUP3 DUP1 ADD PUSH1 0x1 ADD DUP6 SSTORE DUP3 ISZERO PUSH2 0xF84 JUMPI SWAP2 DUP3 ADD JUMPDEST DUP3 DUP2 GT ISZERO PUSH2 0xF83 JUMPI DUP3 MLOAD DUP3 SSTORE SWAP2 PUSH1 0x20 ADD SWAP2 SWAP1 PUSH1 0x1 ADD SWAP1 PUSH2 0xF68 JUMP JUMPDEST JUMPDEST POP SWAP1 POP PUSH2 0xF91 SWAP2 SWAP1 PUSH2 0xF95 JUMP JUMPDEST POP SWAP1 JUMP JUMPDEST JUMPDEST DUP1 DUP3 GT ISZERO PUSH2 0xFAE JUMPI PUSH1 0x0 DUP2 PUSH1 0x0 SWAP1 SSTORE POP PUSH1 0x1 ADD PUSH2 0xF96 JUMP JUMPDEST POP SWAP1 JUMP JUMPDEST PUSH1 0x0 PUSH2 0xFC5 PUSH2 0xFC0 DUP5 PUSH2 0x15A5 JUMP JUMPDEST PUSH2 0x1580 JUMP JUMPDEST SWAP1 POP DUP3 DUP2 MSTORE PUSH1 0x20 DUP2 ADD DUP5 DUP5 DUP5 ADD GT ISZERO PUSH2 0xFE1 JUMPI PUSH2 0xFE0 PUSH2 0x174D JUMP JUMPDEST JUMPDEST PUSH2 0xFEC DUP5 DUP3 DUP6 PUSH2 0x1645 JUMP JUMPDEST POP SWAP4 SWAP3 POP POP POP JUMP JUMPDEST PUSH1 0x0 DUP2 CALLDATALOAD SWAP1 POP PUSH2 0x1003 DUP2 PUSH2 0x1860 JUMP JUMPDEST SWAP3 SWAP2 POP POP JUMP JUMPDEST PUSH1 0x0 DUP3 PUSH1 0x1F DUP4 ADD SLT PUSH2 0x101E JUMPI PUSH2 0x101D PUSH2 0x1748 JUMP JUMPDEST JUMPDEST DUP2 CALLDATALOAD PUSH2 0x102E DUP5 DUP3 PUSH1 0x20 DUP7 ADD PUSH2 0xFB2 JUMP JUMPDEST SWAP2 POP POP SWAP3 SWAP2 POP POP JUMP JUMPDEST PUSH1 0x0 DUP2 CALLDATALOAD SWAP1 POP PUSH2 0x1046 DUP2 PUSH2 0x1877 JUMP JUMPDEST SWAP3 SWAP2 POP POP JUMP JUMPDEST PUSH1 0x0 PUSH1 0x20 DUP3 DUP5 SUB SLT ISZERO PUSH2 0x1062 JUMPI PUSH2 0x1061 PUSH2 0x1757 JUMP JUMPDEST JUMPDEST PUSH1 0x0 PUSH2 0x1070 DUP5 DUP3 DUP6 ADD PUSH2 0xFF4 JUMP JUMPDEST SWAP2 POP POP SWAP3 SWAP2 POP POP JUMP JUMPDEST PUSH1 0x0 DUP1 PUSH1 0x40 DUP4 DUP6 SUB SLT ISZERO PUSH2 0x1090 JUMPI PUSH2 0x108F PUSH2 0x1757 JUMP JUMPDEST JUMPDEST PUSH1 0x0 PUSH2 0x109E DUP6 DUP3 DUP7 ADD PUSH2 0xFF4 JUMP JUMPDEST SWAP3 POP POP PUSH1 0x20 PUSH2 0x10AF DUP6 DUP3 DUP7 ADD PUSH2 0x1037 JUMP JUMPDEST SWAP2 POP POP SWAP3 POP SWAP3 SWAP1 POP JUMP JUMPDEST PUSH1 0x0 DUP1 PUSH1 0x0 DUP1 PUSH1 0x0 DUP1 PUSH1 0x0 DUP1 PUSH2 0x100 DUP10 DUP12 SUB SLT ISZERO PUSH2 0x10DA JUMPI PUSH2 0x10D9 PUSH2 0x1757 JUMP JUMPDEST JUMPDEST PUSH1 0x0 DUP10 ADD CALLDATALOAD PUSH8 0xFFFFFFFFFFFFFFFF DUP2 GT ISZERO PUSH2 0x10F8 JUMPI PUSH2 0x10F7 PUSH2 0x1752 JUMP JUMPDEST JUMPDEST PUSH2 0x1104 DUP12 DUP3 DUP13 ADD PUSH2 0x1009 JUMP JUMPDEST SWAP9 POP POP PUSH1 0x20 DUP10 ADD CALLDATALOAD PUSH8 0xFFFFFFFFFFFFFFFF DUP2 GT ISZERO PUSH2 0x1125 JUMPI PUSH2 0x1124 PUSH2 0x1752 JUMP JUMPDEST JUMPDEST PUSH2 0x1131 DUP12 DUP3 DUP13 ADD PUSH2 0x1009 JUMP JUMPDEST SWAP8 POP POP PUSH1 0x40 DUP10 ADD CALLDATALOAD PUSH8 0xFFFFFFFFFFFFFFFF DUP2 GT ISZERO PUSH2 0x1152 JUMPI PUSH2 0x1151 PUSH2 0x1752 JUMP JUMPDEST JUMPDEST PUSH2 0x115E DUP12 DUP3 DUP13 ADD PUSH2 0x1009 JUMP JUMPDEST SWAP7 POP POP PUSH1 0x60 DUP10 ADD CALLDATALOAD PUSH8 0xFFFFFFFFFFFFFFFF DUP2 GT ISZERO PUSH2 0x117F JUMPI PUSH2 0x117E PUSH2 0x1752 JUMP JUMPDEST JUMPDEST PUSH2 0x118B DUP12 DUP3 DUP13 ADD PUSH2 0x1009 JUMP JUMPDEST SWAP6 POP POP PUSH1 0x80 DUP10 ADD CALLDATALOAD PUSH8 0xFFFFFFFFFFFFFFFF DUP2 GT ISZERO PUSH2 0x11AC JUMPI PUSH2 0x11AB PUSH2 0x1752 JUMP JUMPDEST JUMPDEST PUSH2 0x11B8 DUP12 DUP3 DUP13 ADD PUSH2 0x1009 JUMP JUMPDEST SWAP5 POP POP PUSH1 0xA0 DUP10 ADD CALLDATALOAD PUSH8 0xFFFFFFFFFFFFFFFF DUP2 GT ISZERO PUSH2 0x11D9 JUMPI PUSH2 0x11D8 PUSH2 0x1752 JUMP JUMPDEST JUMPDEST PUSH2 0x11E5 DUP12 DUP3 DUP13 ADD PUSH2 0x1009 JUMP JUMPDEST SWAP4 POP POP PUSH1 0xC0 DUP10 ADD CALLDATALOAD PUSH8 0xFFFFFFFFFFFFFFFF DUP2 GT ISZERO PUSH2 0x1206 JUMPI PUSH2 0x1205 PUSH2 0x1752 JUMP JUMPDEST JUMPDEST PUSH2 0x1212 DUP12 DUP3 DUP13 ADD PUSH2 0x1009 JUMP JUMPDEST SWAP3 POP POP PUSH1 0xE0 DUP10 ADD CALLDATALOAD PUSH8 0xFFFFFFFFFFFFFFFF DUP2 GT ISZERO PUSH2 0x1233 JUMPI PUSH2 0x1232 PUSH2 0x1752 JUMP JUMPDEST JUMPDEST PUSH2 0x123F DUP12 DUP3 DUP13 ADD PUSH2 0x1009 JUMP JUMPDEST SWAP2 POP POP SWAP3 SWAP6 SWAP9 POP SWAP3 SWAP6 SWAP9 SWAP1 SWAP4 SWAP7 POP JUMP JUMPDEST PUSH1 0x0 PUSH1 0x20 DUP3 DUP5 SUB SLT ISZERO PUSH2 0x1265 JUMPI PUSH2 0x1264 PUSH2 0x1757 JUMP JUMPDEST JUMPDEST PUSH1 0x0 PUSH2 0x1273 DUP5 DUP3 DUP6 ADD PUSH2 0x1037 JUMP JUMPDEST SWAP2 POP POP SWAP3 SWAP2 POP POP JUMP JUMPDEST PUSH2 0x1285 DUP2 PUSH2 0x15FD JUMP JUMPDEST DUP3 MSTORE POP POP JUMP JUMPDEST PUSH2 0x1294 DUP2 PUSH2 0x160F JUMP JUMPDEST DUP3 MSTORE POP POP JUMP JUMPDEST PUSH1 0x0 PUSH2 0x12A5 DUP3 PUSH2 0x15D6 JUMP JUMPDEST PUSH2 0x12AF DUP2 DUP6 PUSH2 0x15E1 JUMP JUMPDEST SWAP4 POP PUSH2 0x12BF DUP2 DUP6 PUSH1 0x20 DUP7 ADD PUSH2 0x1654 JUMP JUMPDEST PUSH2 0x12C8 DUP2 PUSH2 0x175C JUMP JUMPDEST DUP5 ADD SWAP2 POP POP SWAP3 SWAP2 POP POP JUMP JUMPDEST PUSH1 0x0 PUSH2 0x12DE DUP3 PUSH2 0x15D6 JUMP JUMPDEST PUSH2 0x12E8 DUP2 DUP6 PUSH2 0x15F2 JUMP JUMPDEST SWAP4 POP PUSH2 0x12F8 DUP2 DUP6 PUSH1 0x20 DUP7 ADD PUSH2 0x1654 JUMP JUMPDEST DUP1 DUP5 ADD SWAP2 POP POP SWAP3 SWAP2 POP POP JUMP JUMPDEST PUSH1 0x0 PUSH2 0x1311 PUSH1 0x1D DUP4 PUSH2 0x15E1 JUMP JUMPDEST SWAP2 POP PUSH2 0x131C DUP3 PUSH2 0x176D JUMP JUMPDEST PUSH1 0x20 DUP3 ADD SWAP1 POP SWAP2 SWAP1 POP JUMP JUMPDEST PUSH1 0x0 PUSH2 0x1334 PUSH1 0x26 DUP4 PUSH2 0x15E1 JUMP JUMPDEST SWAP2 POP PUSH2 0x133F DUP3 PUSH2 0x1796 JUMP JUMPDEST PUSH1 0x40 DUP3 ADD SWAP1 POP SWAP2 SWAP1 POP JUMP JUMPDEST PUSH1 0x0 PUSH2 0x1357 PUSH1 0x1C DUP4 PUSH2 0x15E1 JUMP JUMPDEST SWAP2 POP PUSH2 0x1362 DUP3 PUSH2 0x17E5 JUMP JUMPDEST PUSH1 0x20 DUP3 ADD SWAP1 POP SWAP2 SWAP1 POP JUMP JUMPDEST PUSH1 0x0 PUSH2 0x137A PUSH1 0x1F DUP4 PUSH2 0x15E1 JUMP JUMPDEST SWAP2 POP PUSH2 0x1385 DUP3 PUSH2 0x180E JUMP JUMPDEST PUSH1 0x20 DUP3 ADD SWAP1 POP SWAP2 SWAP1 POP JUMP JUMPDEST PUSH1 0x0 PUSH2 0x139D PUSH1 0x20 DUP4 PUSH2 0x15E1 JUMP JUMPDEST SWAP2 POP PUSH2 0x13A8 DUP3 PUSH2 0x1837 JUMP JUMPDEST PUSH1 0x20 DUP3 ADD SWAP1 POP SWAP2 SWAP1 POP JUMP JUMPDEST PUSH2 0x13BC DUP2 PUSH2 0x163B JUMP JUMPDEST DUP3 MSTORE POP POP JUMP JUMPDEST PUSH1 0x0 PUSH2 0x13CE DUP3 DUP5 PUSH2 0x12D3 JUMP JUMPDEST SWAP2 POP DUP2 SWAP1 POP SWAP3 SWAP2 POP POP JUMP JUMPDEST PUSH1 0x0 PUSH1 0x20 DUP3 ADD SWAP1 POP PUSH2 0x13EE PUSH1 0x0 DUP4 ADD DUP5 PUSH2 0x127C JUMP JUMPDEST SWAP3 SWAP2 POP POP JUMP JUMPDEST PUSH1 0x0 PUSH1 0x20 DUP3 ADD SWAP1 POP PUSH2 0x1409 PUSH1 0x0 DUP4 ADD DUP5 PUSH2 0x128B JUMP JUMPDEST SWAP3 SWAP2 POP POP JUMP JUMPDEST PUSH1 0x0 PUSH2 0x100 DUP3 ADD SWAP1 POP DUP2 DUP2 SUB PUSH1 0x0 DUP4 ADD MSTORE PUSH2 0x142A DUP2 DUP12 PUSH2 0x129A JUMP JUMPDEST SWAP1 POP DUP2 DUP2 SUB PUSH1 0x20 DUP4 ADD MSTORE PUSH2 0x143E DUP2 DUP11 PUSH2 0x129A JUMP JUMPDEST SWAP1 POP DUP2 DUP2 SUB PUSH1 0x40 DUP4 ADD MSTORE PUSH2 0x1452 DUP2 DUP10 PUSH2 0x129A JUMP JUMPDEST SWAP1 POP DUP2 DUP2 SUB PUSH1 0x60 DUP4 ADD MSTORE PUSH2 0x1466 DUP2 DUP9 PUSH2 0x129A JUMP JUMPDEST SWAP1 POP DUP2 DUP2 SUB PUSH1 0x80 DUP4 ADD MSTORE PUSH2 0x147A DUP2 DUP8 PUSH2 0x129A JUMP JUMPDEST SWAP1 POP DUP2 DUP2 SUB PUSH1 0xA0 DUP4 ADD MSTORE PUSH2 0x148E DUP2 DUP7 PUSH2 0x129A JUMP JUMPDEST SWAP1 POP DUP2 DUP2 SUB PUSH1 0xC0 DUP4 ADD MSTORE PUSH2 0x14A2 DUP2 DUP6 PUSH2 0x129A JUMP JUMPDEST SWAP1 POP DUP2 DUP2 SUB PUSH1 0xE0 DUP4 ADD MSTORE PUSH2 0x14B6 DUP2 DUP5 PUSH2 0x129A JUMP JUMPDEST SWAP1 POP SWAP10 SWAP9 POP POP POP POP POP POP POP POP POP JUMP JUMPDEST PUSH1 0x0 PUSH1 0x20 DUP3 ADD SWAP1 POP DUP2 DUP2 SUB PUSH1 0x0 DUP4 ADD MSTORE PUSH2 0x14DE DUP2 PUSH2 0x1304 JUMP JUMPDEST SWAP1 POP SWAP2 SWAP1 POP JUMP JUMPDEST PUSH1 0x0 PUSH1 0x20 DUP3 ADD SWAP1 POP DUP2 DUP2 SUB PUSH1 0x0 DUP4 ADD MSTORE PUSH2 0x14FE DUP2 PUSH2 0x1327 JUMP JUMPDEST SWAP1 POP SWAP2 SWAP1 POP JUMP JUMPDEST PUSH1 0x0 PUSH1 0x20 DUP3 ADD SWAP1 POP DUP2 DUP2 SUB PUSH1 0x0 DUP4 ADD MSTORE PUSH2 0x151E DUP2 PUSH2 0x134A JUMP JUMPDEST SWAP1 POP SWAP2 SWAP1 POP JUMP JUMPDEST PUSH1 0x0 PUSH1 0x20 DUP3 ADD SWAP1 POP DUP2 DUP2 SUB PUSH1 0x0 DUP4 ADD MSTORE PUSH2 0x153E DUP2 PUSH2 0x136D JUMP JUMPDEST SWAP1 POP SWAP2 SWAP1 POP JUMP JUMPDEST PUSH1 0x0 PUSH1 0x20 DUP3 ADD SWAP1 POP DUP2 DUP2 SUB PUSH1 0x0 DUP4 ADD MSTORE PUSH2 0x155E DUP2 PUSH2 0x1390 JUMP JUMPDEST SWAP1 POP SWAP2 SWAP1 POP JUMP JUMPDEST PUSH1 0x0 PUSH1 0x20 DUP3 ADD SWAP1 POP PUSH2 0x157A PUSH1 0x0 DUP4 ADD DUP5 PUSH2 0x13B3 JUMP JUMPDEST SWAP3 SWAP2 POP POP JUMP JUMPDEST PUSH1 0x0 PUSH2 0x158A PUSH2 0x159B JUMP JUMPDEST SWAP1 POP PUSH2 0x1596 DUP3 DUP3 PUSH2 0x16B9 JUMP JUMPDEST SWAP2 SWAP1 POP JUMP JUMPDEST PUSH1 0x0 PUSH1 0x40 MLOAD SWAP1 POP SWAP1 JUMP JUMPDEST PUSH1 0x0 PUSH8 0xFFFFFFFFFFFFFFFF DUP3 GT ISZERO PUSH2 0x15C0 JUMPI PUSH2 0x15BF PUSH2 0x1719 JUMP JUMPDEST JUMPDEST PUSH2 0x15C9 DUP3 PUSH2 0x175C JUMP JUMPDEST SWAP1 POP PUSH1 0x20 DUP2 ADD SWAP1 POP SWAP2 SWAP1 POP JUMP JUMPDEST PUSH1 0x0 DUP2 MLOAD SWAP1 POP SWAP2 SWAP1 POP JUMP JUMPDEST PUSH1 0x0 DUP3 DUP3 MSTORE PUSH1 0x20 DUP3 ADD SWAP1 POP SWAP3 SWAP2 POP POP JUMP JUMPDEST PUSH1 0x0 DUP2 SWAP1 POP SWAP3 SWAP2 POP POP JUMP JUMPDEST PUSH1 0x0 PUSH2 0x1608 DUP3 PUSH2 0x161B JUMP JUMPDEST SWAP1 POP SWAP2 SWAP1 POP JUMP JUMPDEST PUSH1 0x0 DUP2 ISZERO ISZERO SWAP1 POP SWAP2 SWAP1 POP JUMP JUMPDEST PUSH1 0x0 PUSH20 0xFFFFFFFFFFFFFFFFFFFFFFFFFFFFFFFFFFFFFFFF DUP3 AND SWAP1 POP SWAP2 SWAP1 POP JUMP JUMPDEST PUSH1 0x0 DUP2 SWAP1 POP SWAP2 SWAP1 POP JUMP JUMPDEST DUP3 DUP2 DUP4 CALLDATACOPY PUSH1 0x0 DUP4 DUP4 ADD MSTORE POP POP POP JUMP JUMPDEST PUSH1 0x0 JUMPDEST DUP4 DUP2 LT ISZERO PUSH2 0x1672 JUMPI DUP1 DUP3 ADD MLOAD DUP2 DUP5 ADD MSTORE PUSH1 0x20 DUP2 ADD SWAP1 POP PUSH2 0x1657 JUMP JUMPDEST DUP4 DUP2 GT ISZERO PUSH2 0x1681 JUMPI PUSH1 0x0 DUP5 DUP5 ADD MSTORE JUMPDEST POP POP POP POP JUMP JUMPDEST PUSH1 0x0 PUSH1 0x2 DUP3 DIV SWAP1 POP PUSH1 0x1 DUP3 AND DUP1 PUSH2 0x169F JUMPI PUSH1 0x7F DUP3 AND SWAP2 POP JUMPDEST PUSH1 0x20 DUP3 LT DUP2 EQ ISZERO PUSH2 0x16B3 JUMPI PUSH2 0x16B2 PUSH2 0x16EA JUMP JUMPDEST JUMPDEST POP SWAP2 SWAP1 POP JUMP JUMPDEST PUSH2 0x16C2 DUP3 PUSH2 0x175C JUMP JUMPDEST DUP2 ADD DUP2 DUP2 LT PUSH8 0xFFFFFFFFFFFFFFFF DUP3 GT OR ISZERO PUSH2 0x16E1 JUMPI PUSH2 0x16E0 PUSH2 0x1719 JUMP JUMPDEST JUMPDEST DUP1 PUSH1 0x40 MSTORE POP POP POP JUMP JUMPDEST PUSH32 0x4E487B7100000000000000000000000000000000000000000000000000000000 PUSH1 0x0 MSTORE PUSH1 0x22 PUSH1 0x4 MSTORE PUSH1 0x24 PUSH1 0x0 REVERT JUMPDEST PUSH32 0x4E487B7100000000000000000000000000000000000000000000000000000000 PUSH1 0x0 MSTORE PUSH1 0x41 PUSH1 0x4 MSTORE PUSH1 0x24 PUSH1 0x0 REVERT JUMPDEST PUSH1 0x0 DUP1 REVERT JUMPDEST PUSH1 0x0 DUP1 REVERT JUMPDEST PUSH1 0x0 DUP1 REVERT JUMPDEST PUSH1 0x0 DUP1 REVERT JUMPDEST PUSH1 0x0 PUSH1 0x1F NOT PUSH1 0x1F DUP4 ADD AND SWAP1 POP SWAP2 SWAP1 POP JUMP JUMPDEST PUSH32 0x76616C75652073686F756C6420626520657861637420746F2066656520000000 PUSH1 0x0 DUP3 ADD MSTORE POP JUMP JUMPDEST PUSH32 0x4F776E61626C653A206E6577206F776E657220697320746865207A65726F2061 PUSH1 0x0 DUP3 ADD MSTORE PUSH32 0x6464726573730000000000000000000000000000000000000000000000000000 PUSH1 0x20 DUP3 ADD MSTORE POP JUMP JUMPDEST PUSH32 0x7472616E7366657220746F20746865207A65726F206164647265737300000000 PUSH1 0x0 DUP3 ADD MSTORE POP JUMP JUMPDEST PUSH32 0x7472616E7366657220616D6F756E7420657863656564732062616C616E636500 PUSH1 0x0 DUP3 ADD MSTORE POP JUMP JUMPDEST PUSH32 0x4F776E61626C653A2063616C6C6572206973206E6F7420746865206F776E6572 PUSH1 0x0 DUP3 ADD MSTORE POP JUMP JUMPDEST PUSH2 0x1869 DUP2 PUSH2 0x15FD JUMP JUMPDEST DUP2 EQ PUSH2 0x1874 JUMPI PUSH1 0x0 DUP1 REVERT JUMPDEST POP JUMP JUMPDEST PUSH2 0x1880 DUP2 PUSH2 0x163B JUMP JUMPDEST DUP2 EQ PUSH2 0x188B JUMPI PUSH1 0x0 DUP1 REVERT JUMPDEST POP JUMP INVALID LOG2 PUSH5 0x6970667358 0x22 SLT KECCAK256 0xDA 0xC1 LT 0xBF SWAP4 PUSH15 0x2259F2497EBA7A4E5D6F6A69FCE3F2 0xB1 0x26 0x5C REVERT SWAP3 0xEA SUB PUSH2 0x56C1 0xB6 PUSH5 0x736F6C6343 STOP ADDMOD SMOD STOP CALLER "
    },
    "gasEstimates": {
      "creation": {
        "codeDepositCost": "1268000",
        "executionCost": "infinite",
        "totalCost": "infinite"
      },
      "external": {
        "": "196",
        "createEpitaph(string,string,string,string,string,string,string,string)": "infinite",
        "epitaphs(address,uint256)": "infinite",
        "fee()": "2495",
        "getAddressEpitaphCount(address)": "2871",
        "getBalance()": "2677",
        "owner()": "2522",
        "renounceOwnership()": "30463",
        "setFee(uint256)": "25029",
        "transfer(address,uint256)": "infinite",
        "transferOwnership(address)": "30811"
      }
    },
    "methodIdentifiers": {
      "createEpitaph(string,string,string,string,string,string,string,string)": "2fbed831",
      "epitaphs(address,uint256)": "15c18d4a",
      "fee()": "ddca3f43",
      "getAddressEpitaphCount(address)": "a12bcbe5",
      "getBalance()": "12065fe0",
      "owner()": "8da5cb5b",
      "renounceOwnership()": "715018a6",
      "setFee(uint256)": "69fe0e2d",
      "transfer(address,uint256)": "a9059cbb",
      "transferOwnership(address)": "f2fde38b"
    }
  },
  "abi": [
    {
      "inputs": [],
      "stateMutability": "nonpayable",
      "type": "constructor"
    },
    {
      "anonymous": false,
      "inputs": [
        {
          "indexed": true,
          "internalType": "string",
          "name": "firstName",
          "type": "string"
        },
        {
          "indexed": true,
          "internalType": "string",
          "name": "lastName",
          "type": "string"
        },
        {
          "indexed": true,
          "internalType": "string",
          "name": "birthCity",
          "type": "string"
        },
        {
          "indexed": false,
          "internalType": "string",
          "name": "firstNameStr",
          "type": "string"
        },
        {
          "indexed": false,
          "internalType": "string",
          "name": "lastNameStr",
          "type": "string"
        },
        {
          "indexed": false,
          "internalType": "string",
          "name": "birthCityStr",
          "type": "string"
        },
        {
          "indexed": false,
          "internalType": "string",
          "name": "birthCountry",
          "type": "string"
        },
        {
          "indexed": false,
          "internalType": "string",
          "name": "birthDate",
          "type": "string"
        },
        {
          "indexed": false,
          "internalType": "string",
          "name": "deathDate",
          "type": "string"
        },
        {
          "indexed": false,
          "internalType": "string",
          "name": "imageUri",
          "type": "string"
        },
        {
          "indexed": false,
          "internalType": "string",
          "name": "notes",
          "type": "string"
        }
      ],
      "name": "EpitaphEvent",
      "type": "event"
    },
    {
      "anonymous": false,
      "inputs": [
        {
          "indexed": true,
          "internalType": "address",
          "name": "previousOwner",
          "type": "address"
        },
        {
          "indexed": true,
          "internalType": "address",
          "name": "newOwner",
          "type": "address"
        }
      ],
      "name": "OwnershipTransferred",
      "type": "event"
    },
    {
      "anonymous": false,
      "inputs": [
        {
          "indexed": true,
          "internalType": "address",
          "name": "to",
          "type": "address"
        },
        {
          "indexed": false,
          "internalType": "uint256",
          "name": "value",
          "type": "uint256"
        }
      ],
      "name": "TransferEvent",
      "type": "event"
    },
    {
      "stateMutability": "payable",
      "type": "fallback"
    },
    {
      "inputs": [
        {
          "internalType": "string",
          "name": "_firstName",
          "type": "string"
        },
        {
          "internalType": "string",
          "name": "_lastName",
          "type": "string"
        },
        {
          "internalType": "string",
          "name": "_birthCity",
          "type": "string"
        },
        {
          "internalType": "string",
          "name": "_birthCountry",
          "type": "string"
        },
        {
          "internalType": "string",
          "name": "_birthDate",
          "type": "string"
        },
        {
          "internalType": "string",
          "name": "_deathDate",
          "type": "string"
        },
        {
          "internalType": "string",
          "name": "_imageUri",
          "type": "string"
        },
        {
          "internalType": "string",
          "name": "_notes",
          "type": "string"
        }
      ],
      "name": "createEpitaph",
      "outputs": [],
      "stateMutability": "payable",
      "type": "function"
    },
    {
      "inputs": [
        {
          "internalType": "address",
          "name": "",
          "type": "address"
        },
        {
          "internalType": "uint256",
          "name": "",
          "type": "uint256"
        }
      ],
      "name": "epitaphs",
      "outputs": [
        {
          "internalType": "string",
          "name": "firstName",
          "type": "string"
        },
        {
          "internalType": "string",
          "name": "lastName",
          "type": "string"
        },
        {
          "internalType": "string",
          "name": "birthCity",
          "type": "string"
        },
        {
          "internalType": "string",
          "name": "birthCountry",
          "type": "string"
        },
        {
          "internalType": "string",
          "name": "birthDate",
          "type": "string"
        },
        {
          "internalType": "string",
          "name": "deathDate",
          "type": "string"
        },
        {
          "internalType": "string",
          "name": "imageUri",
          "type": "string"
        },
        {
          "internalType": "string",
          "name": "notes",
          "type": "string"
        }
      ],
      "stateMutability": "view",
      "type": "function"
    },
    {
      "inputs": [],
      "name": "fee",
      "outputs": [
        {
          "internalType": "uint256",
          "name": "",
          "type": "uint256"
        }
      ],
      "stateMutability": "view",
      "type": "function"
    },
    {
      "inputs": [
        {
          "internalType": "address",
          "name": "_epitaphOwner",
          "type": "address"
        }
      ],
      "name": "getAddressEpitaphCount",
      "outputs": [
        {
          "internalType": "uint256",
          "name": "",
          "type": "uint256"
        }
      ],
      "stateMutability": "view",
      "type": "function"
    },
    {
      "inputs": [],
      "name": "getBalance",
      "outputs": [
        {
          "internalType": "uint256",
          "name": "",
          "type": "uint256"
        }
      ],
      "stateMutability": "view",
      "type": "function"
    },
    {
      "inputs": [],
      "name": "owner",
      "outputs": [
        {
          "internalType": "address",
          "name": "",
          "type": "address"
        }
      ],
      "stateMutability": "view",
      "type": "function"
    },
    {
      "inputs": [],
      "name": "renounceOwnership",
      "outputs": [],
      "stateMutability": "nonpayable",
      "type": "function"
    },
    {
      "inputs": [
        {
          "internalType": "uint256",
          "name": "newFee",
          "type": "uint256"
        }
      ],
      "name": "setFee",
      "outputs": [
        {
          "internalType": "bool",
          "name": "",
          "type": "bool"
        }
      ],
      "stateMutability": "nonpayable",
      "type": "function"
    },
    {
      "inputs": [
        {
          "internalType": "address",
          "name": "_to",
          "type": "address"
        },
        {
          "internalType": "uint256",
          "name": "_amount",
          "type": "uint256"
        }
      ],
      "name": "transfer",
      "outputs": [],
      "stateMutability": "nonpayable",
      "type": "function"
    },
    {
      "inputs": [
        {
          "internalType": "address",
          "name": "newOwner",
          "type": "address"
        }
      ],
      "name": "transferOwnership",
      "outputs": [],
      "stateMutability": "nonpayable",
      "type": "function"
    },
    {
      "stateMutability": "payable",
      "type": "receive"
    }
  ]
}