{
  "data": {
    "bytecode": {
      "linkReferences": {},
      "object": "608060405267016345785d8a000060015534801561001c57600080fd5b5061003961002e61003e60201b60201c565b61004660201b60201c565b61010a565b600033905090565b60008060009054906101000a900473ffffffffffffffffffffffffffffffffffffffff169050816000806101000a81548173ffffffffffffffffffffffffffffffffffffffff021916908373ffffffffffffffffffffffffffffffffffffffff1602179055508173ffffffffffffffffffffffffffffffffffffffff168173ffffffffffffffffffffffffffffffffffffffff167f8be0079c531659141344cd1fd0a4f28419497f9722a3daafe3b4186f6b6457e060405160405180910390a35050565b6117c8806101196000396000f3fe6080604052600436106100955760003560e01c80638f2c4a4e116100595780638f2c4a4e1461018b578063a12bcbe5146101a7578063a9059cbb146101e4578063ddca3f431461020d578063f2fde38b146102385761009c565b806312065fe01461009e57806315c18d4a146100c957806369fe0e2d1461010c578063715018a6146101495780638da5cb5b146101605761009c565b3661009c57005b005b3480156100aa57600080fd5b506100b3610261565b6040516100c09190611469565b60405180910390f35b3480156100d557600080fd5b506100f060048036038101906100eb9190610fc3565b6102e5565b6040516101039796959493929190611329565b60405180910390f35b34801561011857600080fd5b50610133600480360381019061012e9190611169565b6106fc565b604051610140919061130e565b60405180910390f35b34801561015557600080fd5b5061015e61078a565b005b34801561016c57600080fd5b50610175610812565b60405161018291906112f3565b60405180910390f35b6101a560048036038101906101a09190611003565b61083b565b005b3480156101b357600080fd5b506101ce60048036038101906101c99190610f96565b610a7b565b6040516101db9190611469565b60405180910390f35b3480156101f057600080fd5b5061020b60048036038101906102069190610fc3565b610ac7565b005b34801561021957600080fd5b50610222610c8f565b60405161022f9190611469565b60405180910390f35b34801561024457600080fd5b5061025f600480360381019061025a9190610f96565b610c95565b005b600061026b610d8d565b73ffffffffffffffffffffffffffffffffffffffff16610289610812565b73ffffffffffffffffffffffffffffffffffffffff16146102df576040517f08c379a00000000000000000000000000000000000000000000000000000000081526004016102d690611449565b60405180910390fd5b47905090565b6002602052816000526040600020818154811061030157600080fd5b9060005260206000209060070201600091509150508060000180546103259061158b565b80601f01602080910402602001604051908101604052809291908181526020018280546103519061158b565b801561039e5780601f106103735761010080835404028352916020019161039e565b820191906000526020600020905b81548152906001019060200180831161038157829003601f168201915b5050505050908060010180546103b39061158b565b80601f01602080910402602001604051908101604052809291908181526020018280546103df9061158b565b801561042c5780601f106104015761010080835404028352916020019161042c565b820191906000526020600020905b81548152906001019060200180831161040f57829003601f168201915b5050505050908060020180546104419061158b565b80601f016020809104026020016040519081016040528092919081815260200182805461046d9061158b565b80156104ba5780601f1061048f576101008083540402835291602001916104ba565b820191906000526020600020905b81548152906001019060200180831161049d57829003601f168201915b5050505050908060030180546104cf9061158b565b80601f01602080910402602001604051908101604052809291908181526020018280546104fb9061158b565b80156105485780601f1061051d57610100808354040283529160200191610548565b820191906000526020600020905b81548152906001019060200180831161052b57829003601f168201915b50505050509080600401805461055d9061158b565b80601f01602080910402602001604051908101604052809291908181526020018280546105899061158b565b80156105d65780601f106105ab576101008083540402835291602001916105d6565b820191906000526020600020905b8154815290600101906020018083116105b957829003601f168201915b5050505050908060050180546105eb9061158b565b80601f01602080910402602001604051908101604052809291908181526020018280546106179061158b565b80156106645780601f1061063957610100808354040283529160200191610664565b820191906000526020600020905b81548152906001019060200180831161064757829003601f168201915b5050505050908060060180546106799061158b565b80601f01602080910402602001604051908101604052809291908181526020018280546106a59061158b565b80156106f25780601f106106c7576101008083540402835291602001916106f2565b820191906000526020600020905b8154815290600101906020018083116106d557829003601f168201915b5050505050905087565b6000610706610d8d565b73ffffffffffffffffffffffffffffffffffffffff16610724610812565b73ffffffffffffffffffffffffffffffffffffffff161461077a576040517f08c379a000000000000000000000000000000000000000000000000000000000815260040161077190611449565b60405180910390fd5b8160018190555060019050919050565b610792610d8d565b73ffffffffffffffffffffffffffffffffffffffff166107b0610812565b73ffffffffffffffffffffffffffffffffffffffff1614610806576040517f08c379a00000000000000000000000000000000000000000000000000000000081526004016107fd90611449565b60405180910390fd5b6108106000610d95565b565b60008060009054906101000a900473ffffffffffffffffffffffffffffffffffffffff16905090565b600154341461087f576040517f08c379a0000000000000000000000000000000000000000000000000000000008152600401610876906113c9565b60405180910390fd5b60006040518060e00160405280898152602001888152602001878152602001868152602001858152602001848152602001838152509050600260003373ffffffffffffffffffffffffffffffffffffffff1673ffffffffffffffffffffffffffffffffffffffff168152602001908152602001600020819080600181540180825580915050600190039060005260206000209060070201600090919091909150600082015181600001908051906020019061093b929190610e59565b506020820151816001019080519060200190610958929190610e59565b506040820151816002019080519060200190610975929190610e59565b506060820151816003019080519060200190610992929190610e59565b5060808201518160040190805190602001906109af929190610e59565b5060a08201518160050190805190602001906109cc929190610e59565b5060c08201518160060190805190602001906109e9929190610e59565b505050856040516109fa91906112dc565b604051809103902087604051610a1091906112dc565b604051809103902089604051610a2691906112dc565b60405180910390207f4e8b705a3955ee62b1fe75c9f4df4acac784348305c2ba8e09b9201f50f7d9278b8b8b8b8b8b8b604051610a699796959493929190611329565b60405180910390a45050505050505050565b6000600260008373ffffffffffffffffffffffffffffffffffffffff1673ffffffffffffffffffffffffffffffffffffffff168152602001908152602001600020805490509050919050565b610acf610d8d565b73ffffffffffffffffffffffffffffffffffffffff16610aed610812565b73ffffffffffffffffffffffffffffffffffffffff1614610b43576040517f08c379a0000000000000000000000000000000000000000000000000000000008152600401610b3a90611449565b60405180910390fd5b600073ffffffffffffffffffffffffffffffffffffffff168273ffffffffffffffffffffffffffffffffffffffff161415610bb3576040517f08c379a0000000000000000000000000000000000000000000000000000000008152600401610baa90611409565b60405180910390fd5b80471015610bf6576040517f08c379a0000000000000000000000000000000000000000000000000000000008152600401610bed90611429565b60405180910390fd5b8173ffffffffffffffffffffffffffffffffffffffff166108fc829081150290604051600060405180830381858888f19350505050158015610c3c573d6000803e3d6000fd5b508173ffffffffffffffffffffffffffffffffffffffff167fb98a26c1d0427d0e3492e749861c7795bed8f6e7599a65143b5903942e611bb082604051610c839190611469565b60405180910390a25050565b60015481565b610c9d610d8d565b73ffffffffffffffffffffffffffffffffffffffff16610cbb610812565b73ffffffffffffffffffffffffffffffffffffffff1614610d11576040517f08c379a0000000000000000000000000000000000000000000000000000000008152600401610d0890611449565b60405180910390fd5b600073ffffffffffffffffffffffffffffffffffffffff168173ffffffffffffffffffffffffffffffffffffffff161415610d81576040517f08c379a0000000000000000000000000000000000000000000000000000000008152600401610d78906113e9565b60405180910390fd5b610d8a81610d95565b50565b600033905090565b60008060009054906101000a900473ffffffffffffffffffffffffffffffffffffffff169050816000806101000a81548173ffffffffffffffffffffffffffffffffffffffff021916908373ffffffffffffffffffffffffffffffffffffffff1602179055508173ffffffffffffffffffffffffffffffffffffffff168173ffffffffffffffffffffffffffffffffffffffff167f8be0079c531659141344cd1fd0a4f28419497f9722a3daafe3b4186f6b6457e060405160405180910390a35050565b828054610e659061158b565b90600052602060002090601f016020900481019282610e875760008555610ece565b82601f10610ea057805160ff1916838001178555610ece565b82800160010185558215610ece579182015b82811115610ecd578251825591602001919060010190610eb2565b5b509050610edb9190610edf565b5090565b5b80821115610ef8576000816000905550600101610ee0565b5090565b6000610f0f610f0a846114a9565b611484565b905082815260208101848484011115610f2b57610f2a611651565b5b610f36848285611549565b509392505050565b600081359050610f4d81611764565b92915050565b600082601f830112610f6857610f6761164c565b5b8135610f78848260208601610efc565b91505092915050565b600081359050610f908161177b565b92915050565b600060208284031215610fac57610fab61165b565b5b6000610fba84828501610f3e565b91505092915050565b60008060408385031215610fda57610fd961165b565b5b6000610fe885828601610f3e565b9250506020610ff985828601610f81565b9150509250929050565b600080600080600080600060e0888a0312156110225761102161165b565b5b600088013567ffffffffffffffff8111156110405761103f611656565b5b61104c8a828b01610f53565b975050602088013567ffffffffffffffff81111561106d5761106c611656565b5b6110798a828b01610f53565b965050604088013567ffffffffffffffff81111561109a57611099611656565b5b6110a68a828b01610f53565b955050606088013567ffffffffffffffff8111156110c7576110c6611656565b5b6110d38a828b01610f53565b945050608088013567ffffffffffffffff8111156110f4576110f3611656565b5b6111008a828b01610f53565b93505060a088013567ffffffffffffffff81111561112157611120611656565b5b61112d8a828b01610f53565b92505060c088013567ffffffffffffffff81111561114e5761114d611656565b5b61115a8a828b01610f53565b91505092959891949750929550565b60006020828403121561117f5761117e61165b565b5b600061118d84828501610f81565b91505092915050565b61119f81611501565b82525050565b6111ae81611513565b82525050565b60006111bf826114da565b6111c981856114e5565b93506111d9818560208601611558565b6111e281611660565b840191505092915050565b60006111f8826114da565b61120281856114f6565b9350611212818560208601611558565b80840191505092915050565b600061122b601d836114e5565b915061123682611671565b602082019050919050565b600061124e6026836114e5565b91506112598261169a565b604082019050919050565b6000611271601c836114e5565b915061127c826116e9565b602082019050919050565b6000611294601f836114e5565b915061129f82611712565b602082019050919050565b60006112b76020836114e5565b91506112c28261173b565b602082019050919050565b6112d68161153f565b82525050565b60006112e882846111ed565b915081905092915050565b60006020820190506113086000830184611196565b92915050565b600060208201905061132360008301846111a5565b92915050565b600060e0820190508181036000830152611343818a6111b4565b9050818103602083015261135781896111b4565b9050818103604083015261136b81886111b4565b9050818103606083015261137f81876111b4565b9050818103608083015261139381866111b4565b905081810360a08301526113a781856111b4565b905081810360c08301526113bb81846111b4565b905098975050505050505050565b600060208201905081810360008301526113e28161121e565b9050919050565b6000602082019050818103600083015261140281611241565b9050919050565b6000602082019050818103600083015261142281611264565b9050919050565b6000602082019050818103600083015261144281611287565b9050919050565b60006020820190508181036000830152611462816112aa565b9050919050565b600060208201905061147e60008301846112cd565b92915050565b600061148e61149f565b905061149a82826115bd565b919050565b6000604051905090565b600067ffffffffffffffff8211156114c4576114c361161d565b5b6114cd82611660565b9050602081019050919050565b600081519050919050565b600082825260208201905092915050565b600081905092915050565b600061150c8261151f565b9050919050565b60008115159050919050565b600073ffffffffffffffffffffffffffffffffffffffff82169050919050565b6000819050919050565b82818337600083830152505050565b60005b8381101561157657808201518184015260208101905061155b565b83811115611585576000848401525b50505050565b600060028204905060018216806115a357607f821691505b602082108114156115b7576115b66115ee565b5b50919050565b6115c682611660565b810181811067ffffffffffffffff821117156115e5576115e461161d565b5b80604052505050565b7f4e487b7100000000000000000000000000000000000000000000000000000000600052602260045260246000fd5b7f4e487b7100000000000000000000000000000000000000000000000000000000600052604160045260246000fd5b600080fd5b600080fd5b600080fd5b600080fd5b6000601f19601f8301169050919050565b7f76616c75652073686f756c6420626520657861637420746f2066656520000000600082015250565b7f4f776e61626c653a206e6577206f776e657220697320746865207a65726f206160008201527f6464726573730000000000000000000000000000000000000000000000000000602082015250565b7f7472616e7366657220746f20746865207a65726f206164647265737300000000600082015250565b7f7472616e7366657220616d6f756e7420657863656564732062616c616e636500600082015250565b7f4f776e61626c653a2063616c6c6572206973206e6f7420746865206f776e6572600082015250565b61176d81611501565b811461177857600080fd5b50565b6117848161153f565b811461178f57600080fd5b5056fea2646970667358221220c526675c7bd1d4d46e9fb5f4f56d8e766defe2fae876dbcc7febf7af3cc8f77564736f6c63430008070033",
      "opcodes": "PUSH1 0x80 PUSH1 0x40 MSTORE PUSH8 0x16345785D8A0000 PUSH1 0x1 SSTORE CALLVALUE DUP1 ISZERO PUSH2 0x1C JUMPI PUSH1 0x0 DUP1 REVERT JUMPDEST POP PUSH2 0x39 PUSH2 0x2E PUSH2 0x3E PUSH1 0x20 SHL PUSH1 0x20 SHR JUMP JUMPDEST PUSH2 0x46 PUSH1 0x20 SHL PUSH1 0x20 SHR JUMP JUMPDEST PUSH2 0x10A JUMP JUMPDEST PUSH1 0x0 CALLER SWAP1 POP SWAP1 JUMP JUMPDEST PUSH1 0x0 DUP1 PUSH1 0x0 SWAP1 SLOAD SWAP1 PUSH2 0x100 EXP SWAP1 DIV PUSH20 0xFFFFFFFFFFFFFFFFFFFFFFFFFFFFFFFFFFFFFFFF AND SWAP1 POP DUP2 PUSH1 0x0 DUP1 PUSH2 0x100 EXP DUP2 SLOAD DUP2 PUSH20 0xFFFFFFFFFFFFFFFFFFFFFFFFFFFFFFFFFFFFFFFF MUL NOT AND SWAP1 DUP4 PUSH20 0xFFFFFFFFFFFFFFFFFFFFFFFFFFFFFFFFFFFFFFFF AND MUL OR SWAP1 SSTORE POP DUP2 PUSH20 0xFFFFFFFFFFFFFFFFFFFFFFFFFFFFFFFFFFFFFFFF AND DUP2 PUSH20 0xFFFFFFFFFFFFFFFFFFFFFFFFFFFFFFFFFFFFFFFF AND PUSH32 0x8BE0079C531659141344CD1FD0A4F28419497F9722A3DAAFE3B4186F6B6457E0 PUSH1 0x40 MLOAD PUSH1 0x40 MLOAD DUP1 SWAP2 SUB SWAP1 LOG3 POP POP JUMP JUMPDEST PUSH2 0x17C8 DUP1 PUSH2 0x119 PUSH1 0x0 CODECOPY PUSH1 0x0 RETURN INVALID PUSH1 0x80 PUSH1 0x40 MSTORE PUSH1 0x4 CALLDATASIZE LT PUSH2 0x95 JUMPI PUSH1 0x0 CALLDATALOAD PUSH1 0xE0 SHR DUP1 PUSH4 0x8F2C4A4E GT PUSH2 0x59 JUMPI DUP1 PUSH4 0x8F2C4A4E EQ PUSH2 0x18B JUMPI DUP1 PUSH4 0xA12BCBE5 EQ PUSH2 0x1A7 JUMPI DUP1 PUSH4 0xA9059CBB EQ PUSH2 0x1E4 JUMPI DUP1 PUSH4 0xDDCA3F43 EQ PUSH2 0x20D JUMPI DUP1 PUSH4 0xF2FDE38B EQ PUSH2 0x238 JUMPI PUSH2 0x9C JUMP JUMPDEST DUP1 PUSH4 0x12065FE0 EQ PUSH2 0x9E JUMPI DUP1 PUSH4 0x15C18D4A EQ PUSH2 0xC9 JUMPI DUP1 PUSH4 0x69FE0E2D EQ PUSH2 0x10C JUMPI DUP1 PUSH4 0x715018A6 EQ PUSH2 0x149 JUMPI DUP1 PUSH4 0x8DA5CB5B EQ PUSH2 0x160 JUMPI PUSH2 0x9C JUMP JUMPDEST CALLDATASIZE PUSH2 0x9C JUMPI STOP JUMPDEST STOP JUMPDEST CALLVALUE DUP1 ISZERO PUSH2 0xAA JUMPI PUSH1 0x0 DUP1 REVERT JUMPDEST POP PUSH2 0xB3 PUSH2 0x261 JUMP JUMPDEST PUSH1 0x40 MLOAD PUSH2 0xC0 SWAP2 SWAP1 PUSH2 0x1469 JUMP JUMPDEST PUSH1 0x40 MLOAD DUP1 SWAP2 SUB SWAP1 RETURN JUMPDEST CALLVALUE DUP1 ISZERO PUSH2 0xD5 JUMPI PUSH1 0x0 DUP1 REVERT JUMPDEST POP PUSH2 0xF0 PUSH1 0x4 DUP1 CALLDATASIZE SUB DUP2 ADD SWAP1 PUSH2 0xEB SWAP2 SWAP1 PUSH2 0xFC3 JUMP JUMPDEST PUSH2 0x2E5 JUMP JUMPDEST PUSH1 0x40 MLOAD PUSH2 0x103 SWAP8 SWAP7 SWAP6 SWAP5 SWAP4 SWAP3 SWAP2 SWAP1 PUSH2 0x1329 JUMP JUMPDEST PUSH1 0x40 MLOAD DUP1 SWAP2 SUB SWAP1 RETURN JUMPDEST CALLVALUE DUP1 ISZERO PUSH2 0x118 JUMPI PUSH1 0x0 DUP1 REVERT JUMPDEST POP PUSH2 0x133 PUSH1 0x4 DUP1 CALLDATASIZE SUB DUP2 ADD SWAP1 PUSH2 0x12E SWAP2 SWAP1 PUSH2 0x1169 JUMP JUMPDEST PUSH2 0x6FC JUMP JUMPDEST PUSH1 0x40 MLOAD PUSH2 0x140 SWAP2 SWAP1 PUSH2 0x130E JUMP JUMPDEST PUSH1 0x40 MLOAD DUP1 SWAP2 SUB SWAP1 RETURN JUMPDEST CALLVALUE DUP1 ISZERO PUSH2 0x155 JUMPI PUSH1 0x0 DUP1 REVERT JUMPDEST POP PUSH2 0x15E PUSH2 0x78A JUMP JUMPDEST STOP JUMPDEST CALLVALUE DUP1 ISZERO PUSH2 0x16C JUMPI PUSH1 0x0 DUP1 REVERT JUMPDEST POP PUSH2 0x175 PUSH2 0x812 JUMP JUMPDEST PUSH1 0x40 MLOAD PUSH2 0x182 SWAP2 SWAP1 PUSH2 0x12F3 JUMP JUMPDEST PUSH1 0x40 MLOAD DUP1 SWAP2 SUB SWAP1 RETURN JUMPDEST PUSH2 0x1A5 PUSH1 0x4 DUP1 CALLDATASIZE SUB DUP2 ADD SWAP1 PUSH2 0x1A0 SWAP2 SWAP1 PUSH2 0x1003 JUMP JUMPDEST PUSH2 0x83B JUMP JUMPDEST STOP JUMPDEST CALLVALUE DUP1 ISZERO PUSH2 0x1B3 JUMPI PUSH1 0x0 DUP1 REVERT JUMPDEST POP PUSH2 0x1CE PUSH1 0x4 DUP1 CALLDATASIZE SUB DUP2 ADD SWAP1 PUSH2 0x1C9 SWAP2 SWAP1 PUSH2 0xF96 JUMP JUMPDEST PUSH2 0xA7B JUMP JUMPDEST PUSH1 0x40 MLOAD PUSH2 0x1DB SWAP2 SWAP1 PUSH2 0x1469 JUMP JUMPDEST PUSH1 0x40 MLOAD DUP1 SWAP2 SUB SWAP1 RETURN JUMPDEST CALLVALUE DUP1 ISZERO PUSH2 0x1F0 JUMPI PUSH1 0x0 DUP1 REVERT JUMPDEST POP PUSH2 0x20B PUSH1 0x4 DUP1 CALLDATASIZE SUB DUP2 ADD SWAP1 PUSH2 0x206 SWAP2 SWAP1 PUSH2 0xFC3 JUMP JUMPDEST PUSH2 0xAC7 JUMP JUMPDEST STOP JUMPDEST CALLVALUE DUP1 ISZERO PUSH2 0x219 JUMPI PUSH1 0x0 DUP1 REVERT JUMPDEST POP PUSH2 0x222 PUSH2 0xC8F JUMP JUMPDEST PUSH1 0x40 MLOAD PUSH2 0x22F SWAP2 SWAP1 PUSH2 0x1469 JUMP JUMPDEST PUSH1 0x40 MLOAD DUP1 SWAP2 SUB SWAP1 RETURN JUMPDEST CALLVALUE DUP1 ISZERO PUSH2 0x244 JUMPI PUSH1 0x0 DUP1 REVERT JUMPDEST POP PUSH2 0x25F PUSH1 0x4 DUP1 CALLDATASIZE SUB DUP2 ADD SWAP1 PUSH2 0x25A SWAP2 SWAP1 PUSH2 0xF96 JUMP JUMPDEST PUSH2 0xC95 JUMP JUMPDEST STOP JUMPDEST PUSH1 0x0 PUSH2 0x26B PUSH2 0xD8D JUMP JUMPDEST PUSH20 0xFFFFFFFFFFFFFFFFFFFFFFFFFFFFFFFFFFFFFFFF AND PUSH2 0x289 PUSH2 0x812 JUMP JUMPDEST PUSH20 0xFFFFFFFFFFFFFFFFFFFFFFFFFFFFFFFFFFFFFFFF AND EQ PUSH2 0x2DF JUMPI PUSH1 0x40 MLOAD PUSH32 0x8C379A000000000000000000000000000000000000000000000000000000000 DUP2 MSTORE PUSH1 0x4 ADD PUSH2 0x2D6 SWAP1 PUSH2 0x1449 JUMP JUMPDEST PUSH1 0x40 MLOAD DUP1 SWAP2 SUB SWAP1 REVERT JUMPDEST SELFBALANCE SWAP1 POP SWAP1 JUMP JUMPDEST PUSH1 0x2 PUSH1 0x20 MSTORE DUP2 PUSH1 0x0 MSTORE PUSH1 0x40 PUSH1 0x0 KECCAK256 DUP2 DUP2 SLOAD DUP2 LT PUSH2 0x301 JUMPI PUSH1 0x0 DUP1 REVERT JUMPDEST SWAP1 PUSH1 0x0 MSTORE PUSH1 0x20 PUSH1 0x0 KECCAK256 SWAP1 PUSH1 0x7 MUL ADD PUSH1 0x0 SWAP2 POP SWAP2 POP POP DUP1 PUSH1 0x0 ADD DUP1 SLOAD PUSH2 0x325 SWAP1 PUSH2 0x158B JUMP JUMPDEST DUP1 PUSH1 0x1F ADD PUSH1 0x20 DUP1 SWAP2 DIV MUL PUSH1 0x20 ADD PUSH1 0x40 MLOAD SWAP1 DUP2 ADD PUSH1 0x40 MSTORE DUP1 SWAP3 SWAP2 SWAP1 DUP2 DUP2 MSTORE PUSH1 0x20 ADD DUP3 DUP1 SLOAD PUSH2 0x351 SWAP1 PUSH2 0x158B JUMP JUMPDEST DUP1 ISZERO PUSH2 0x39E JUMPI DUP1 PUSH1 0x1F LT PUSH2 0x373 JUMPI PUSH2 0x100 DUP1 DUP4 SLOAD DIV MUL DUP4 MSTORE SWAP2 PUSH1 0x20 ADD SWAP2 PUSH2 0x39E JUMP JUMPDEST DUP3 ADD SWAP2 SWAP1 PUSH1 0x0 MSTORE PUSH1 0x20 PUSH1 0x0 KECCAK256 SWAP1 JUMPDEST DUP2 SLOAD DUP2 MSTORE SWAP1 PUSH1 0x1 ADD SWAP1 PUSH1 0x20 ADD DUP1 DUP4 GT PUSH2 0x381 JUMPI DUP3 SWAP1 SUB PUSH1 0x1F AND DUP3 ADD SWAP2 JUMPDEST POP POP POP POP POP SWAP1 DUP1 PUSH1 0x1 ADD DUP1 SLOAD PUSH2 0x3B3 SWAP1 PUSH2 0x158B JUMP JUMPDEST DUP1 PUSH1 0x1F ADD PUSH1 0x20 DUP1 SWAP2 DIV MUL PUSH1 0x20 ADD PUSH1 0x40 MLOAD SWAP1 DUP2 ADD PUSH1 0x40 MSTORE DUP1 SWAP3 SWAP2 SWAP1 DUP2 DUP2 MSTORE PUSH1 0x20 ADD DUP3 DUP1 SLOAD PUSH2 0x3DF SWAP1 PUSH2 0x158B JUMP JUMPDEST DUP1 ISZERO PUSH2 0x42C JUMPI DUP1 PUSH1 0x1F LT PUSH2 0x401 JUMPI PUSH2 0x100 DUP1 DUP4 SLOAD DIV MUL DUP4 MSTORE SWAP2 PUSH1 0x20 ADD SWAP2 PUSH2 0x42C JUMP JUMPDEST DUP3 ADD SWAP2 SWAP1 PUSH1 0x0 MSTORE PUSH1 0x20 PUSH1 0x0 KECCAK256 SWAP1 JUMPDEST DUP2 SLOAD DUP2 MSTORE SWAP1 PUSH1 0x1 ADD SWAP1 PUSH1 0x20 ADD DUP1 DUP4 GT PUSH2 0x40F JUMPI DUP3 SWAP1 SUB PUSH1 0x1F AND DUP3 ADD SWAP2 JUMPDEST POP POP POP POP POP SWAP1 DUP1 PUSH1 0x2 ADD DUP1 SLOAD PUSH2 0x441 SWAP1 PUSH2 0x158B JUMP JUMPDEST DUP1 PUSH1 0x1F ADD PUSH1 0x20 DUP1 SWAP2 DIV MUL PUSH1 0x20 ADD PUSH1 0x40 MLOAD SWAP1 DUP2 ADD PUSH1 0x40 MSTORE DUP1 SWAP3 SWAP2 SWAP1 DUP2 DUP2 MSTORE PUSH1 0x20 ADD DUP3 DUP1 SLOAD PUSH2 0x46D SWAP1 PUSH2 0x158B JUMP JUMPDEST DUP1 ISZERO PUSH2 0x4BA JUMPI DUP1 PUSH1 0x1F LT PUSH2 0x48F JUMPI PUSH2 0x100 DUP1 DUP4 SLOAD DIV MUL DUP4 MSTORE SWAP2 PUSH1 0x20 ADD SWAP2 PUSH2 0x4BA JUMP JUMPDEST DUP3 ADD SWAP2 SWAP1 PUSH1 0x0 MSTORE PUSH1 0x20 PUSH1 0x0 KECCAK256 SWAP1 JUMPDEST DUP2 SLOAD DUP2 MSTORE SWAP1 PUSH1 0x1 ADD SWAP1 PUSH1 0x20 ADD DUP1 DUP4 GT PUSH2 0x49D JUMPI DUP3 SWAP1 SUB PUSH1 0x1F AND DUP3 ADD SWAP2 JUMPDEST POP POP POP POP POP SWAP1 DUP1 PUSH1 0x3 ADD DUP1 SLOAD PUSH2 0x4CF SWAP1 PUSH2 0x158B JUMP JUMPDEST DUP1 PUSH1 0x1F ADD PUSH1 0x20 DUP1 SWAP2 DIV MUL PUSH1 0x20 ADD PUSH1 0x40 MLOAD SWAP1 DUP2 ADD PUSH1 0x40 MSTORE DUP1 SWAP3 SWAP2 SWAP1 DUP2 DUP2 MSTORE PUSH1 0x20 ADD DUP3 DUP1 SLOAD PUSH2 0x4FB SWAP1 PUSH2 0x158B JUMP JUMPDEST DUP1 ISZERO PUSH2 0x548 JUMPI DUP1 PUSH1 0x1F LT PUSH2 0x51D JUMPI PUSH2 0x100 DUP1 DUP4 SLOAD DIV MUL DUP4 MSTORE SWAP2 PUSH1 0x20 ADD SWAP2 PUSH2 0x548 JUMP JUMPDEST DUP3 ADD SWAP2 SWAP1 PUSH1 0x0 MSTORE PUSH1 0x20 PUSH1 0x0 KECCAK256 SWAP1 JUMPDEST DUP2 SLOAD DUP2 MSTORE SWAP1 PUSH1 0x1 ADD SWAP1 PUSH1 0x20 ADD DUP1 DUP4 GT PUSH2 0x52B JUMPI DUP3 SWAP1 SUB PUSH1 0x1F AND DUP3 ADD SWAP2 JUMPDEST POP POP POP POP POP SWAP1 DUP1 PUSH1 0x4 ADD DUP1 SLOAD PUSH2 0x55D SWAP1 PUSH2 0x158B JUMP JUMPDEST DUP1 PUSH1 0x1F ADD PUSH1 0x20 DUP1 SWAP2 DIV MUL PUSH1 0x20 ADD PUSH1 0x40 MLOAD SWAP1 DUP2 ADD PUSH1 0x40 MSTORE DUP1 SWAP3 SWAP2 SWAP1 DUP2 DUP2 MSTORE PUSH1 0x20 ADD DUP3 DUP1 SLOAD PUSH2 0x589 SWAP1 PUSH2 0x158B JUMP JUMPDEST DUP1 ISZERO PUSH2 0x5D6 JUMPI DUP1 PUSH1 0x1F LT PUSH2 0x5AB JUMPI PUSH2 0x100 DUP1 DUP4 SLOAD DIV MUL DUP4 MSTORE SWAP2 PUSH1 0x20 ADD SWAP2 PUSH2 0x5D6 JUMP JUMPDEST DUP3 ADD SWAP2 SWAP1 PUSH1 0x0 MSTORE PUSH1 0x20 PUSH1 0x0 KECCAK256 SWAP1 JUMPDEST DUP2 SLOAD DUP2 MSTORE SWAP1 PUSH1 0x1 ADD SWAP1 PUSH1 0x20 ADD DUP1 DUP4 GT PUSH2 0x5B9 JUMPI DUP3 SWAP1 SUB PUSH1 0x1F AND DUP3 ADD SWAP2 JUMPDEST POP POP POP POP POP SWAP1 DUP1 PUSH1 0x5 ADD DUP1 SLOAD PUSH2 0x5EB SWAP1 PUSH2 0x158B JUMP JUMPDEST DUP1 PUSH1 0x1F ADD PUSH1 0x20 DUP1 SWAP2 DIV MUL PUSH1 0x20 ADD PUSH1 0x40 MLOAD SWAP1 DUP2 ADD PUSH1 0x40 MSTORE DUP1 SWAP3 SWAP2 SWAP1 DUP2 DUP2 MSTORE PUSH1 0x20 ADD DUP3 DUP1 SLOAD PUSH2 0x617 SWAP1 PUSH2 0x158B JUMP JUMPDEST DUP1 ISZERO PUSH2 0x664 JUMPI DUP1 PUSH1 0x1F LT PUSH2 0x639 JUMPI PUSH2 0x100 DUP1 DUP4 SLOAD DIV MUL DUP4 MSTORE SWAP2 PUSH1 0x20 ADD SWAP2 PUSH2 0x664 JUMP JUMPDEST DUP3 ADD SWAP2 SWAP1 PUSH1 0x0 MSTORE PUSH1 0x20 PUSH1 0x0 KECCAK256 SWAP1 JUMPDEST DUP2 SLOAD DUP2 MSTORE SWAP1 PUSH1 0x1 ADD SWAP1 PUSH1 0x20 ADD DUP1 DUP4 GT PUSH2 0x647 JUMPI DUP3 SWAP1 SUB PUSH1 0x1F AND DUP3 ADD SWAP2 JUMPDEST POP POP POP POP POP SWAP1 DUP1 PUSH1 0x6 ADD DUP1 SLOAD PUSH2 0x679 SWAP1 PUSH2 0x158B JUMP JUMPDEST DUP1 PUSH1 0x1F ADD PUSH1 0x20 DUP1 SWAP2 DIV MUL PUSH1 0x20 ADD PUSH1 0x40 MLOAD SWAP1 DUP2 ADD PUSH1 0x40 MSTORE DUP1 SWAP3 SWAP2 SWAP1 DUP2 DUP2 MSTORE PUSH1 0x20 ADD DUP3 DUP1 SLOAD PUSH2 0x6A5 SWAP1 PUSH2 0x158B JUMP JUMPDEST DUP1 ISZERO PUSH2 0x6F2 JUMPI DUP1 PUSH1 0x1F LT PUSH2 0x6C7 JUMPI PUSH2 0x100 DUP1 DUP4 SLOAD DIV MUL DUP4 MSTORE SWAP2 PUSH1 0x20 ADD SWAP2 PUSH2 0x6F2 JUMP JUMPDEST DUP3 ADD SWAP2 SWAP1 PUSH1 0x0 MSTORE PUSH1 0x20 PUSH1 0x0 KECCAK256 SWAP1 JUMPDEST DUP2 SLOAD DUP2 MSTORE SWAP1 PUSH1 0x1 ADD SWAP1 PUSH1 0x20 ADD DUP1 DUP4 GT PUSH2 0x6D5 JUMPI DUP3 SWAP1 SUB PUSH1 0x1F AND DUP3 ADD SWAP2 JUMPDEST POP POP POP POP POP SWAP1 POP DUP8 JUMP JUMPDEST PUSH1 0x0 PUSH2 0x706 PUSH2 0xD8D JUMP JUMPDEST PUSH20 0xFFFFFFFFFFFFFFFFFFFFFFFFFFFFFFFFFFFFFFFF AND PUSH2 0x724 PUSH2 0x812 JUMP JUMPDEST PUSH20 0xFFFFFFFFFFFFFFFFFFFFFFFFFFFFFFFFFFFFFFFF AND EQ PUSH2 0x77A JUMPI PUSH1 0x40 MLOAD PUSH32 0x8C379A000000000000000000000000000000000000000000000000000000000 DUP2 MSTORE PUSH1 0x4 ADD PUSH2 0x771 SWAP1 PUSH2 0x1449 JUMP JUMPDEST PUSH1 0x40 MLOAD DUP1 SWAP2 SUB SWAP1 REVERT JUMPDEST DUP2 PUSH1 0x1 DUP2 SWAP1 SSTORE POP PUSH1 0x1 SWAP1 POP SWAP2 SWAP1 POP JUMP JUMPDEST PUSH2 0x792 PUSH2 0xD8D JUMP JUMPDEST PUSH20 0xFFFFFFFFFFFFFFFFFFFFFFFFFFFFFFFFFFFFFFFF AND PUSH2 0x7B0 PUSH2 0x812 JUMP JUMPDEST PUSH20 0xFFFFFFFFFFFFFFFFFFFFFFFFFFFFFFFFFFFFFFFF AND EQ PUSH2 0x806 JUMPI PUSH1 0x40 MLOAD PUSH32 0x8C379A000000000000000000000000000000000000000000000000000000000 DUP2 MSTORE PUSH1 0x4 ADD PUSH2 0x7FD SWAP1 PUSH2 0x1449 JUMP JUMPDEST PUSH1 0x40 MLOAD DUP1 SWAP2 SUB SWAP1 REVERT JUMPDEST PUSH2 0x810 PUSH1 0x0 PUSH2 0xD95 JUMP JUMPDEST JUMP JUMPDEST PUSH1 0x0 DUP1 PUSH1 0x0 SWAP1 SLOAD SWAP1 PUSH2 0x100 EXP SWAP1 DIV PUSH20 0xFFFFFFFFFFFFFFFFFFFFFFFFFFFFFFFFFFFFFFFF AND SWAP1 POP SWAP1 JUMP JUMPDEST PUSH1 0x1 SLOAD CALLVALUE EQ PUSH2 0x87F JUMPI PUSH1 0x40 MLOAD PUSH32 0x8C379A000000000000000000000000000000000000000000000000000000000 DUP2 MSTORE PUSH1 0x4 ADD PUSH2 0x876 SWAP1 PUSH2 0x13C9 JUMP JUMPDEST PUSH1 0x40 MLOAD DUP1 SWAP2 SUB SWAP1 REVERT JUMPDEST PUSH1 0x0 PUSH1 0x40 MLOAD DUP1 PUSH1 0xE0 ADD PUSH1 0x40 MSTORE DUP1 DUP10 DUP2 MSTORE PUSH1 0x20 ADD DUP9 DUP2 MSTORE PUSH1 0x20 ADD DUP8 DUP2 MSTORE PUSH1 0x20 ADD DUP7 DUP2 MSTORE PUSH1 0x20 ADD DUP6 DUP2 MSTORE PUSH1 0x20 ADD DUP5 DUP2 MSTORE PUSH1 0x20 ADD DUP4 DUP2 MSTORE POP SWAP1 POP PUSH1 0x2 PUSH1 0x0 CALLER PUSH20 0xFFFFFFFFFFFFFFFFFFFFFFFFFFFFFFFFFFFFFFFF AND PUSH20 0xFFFFFFFFFFFFFFFFFFFFFFFFFFFFFFFFFFFFFFFF AND DUP2 MSTORE PUSH1 0x20 ADD SWAP1 DUP2 MSTORE PUSH1 0x20 ADD PUSH1 0x0 KECCAK256 DUP2 SWAP1 DUP1 PUSH1 0x1 DUP2 SLOAD ADD DUP1 DUP3 SSTORE DUP1 SWAP2 POP POP PUSH1 0x1 SWAP1 SUB SWAP1 PUSH1 0x0 MSTORE PUSH1 0x20 PUSH1 0x0 KECCAK256 SWAP1 PUSH1 0x7 MUL ADD PUSH1 0x0 SWAP1 SWAP2 SWAP1 SWAP2 SWAP1 SWAP2 POP PUSH1 0x0 DUP3 ADD MLOAD DUP2 PUSH1 0x0 ADD SWAP1 DUP1 MLOAD SWAP1 PUSH1 0x20 ADD SWAP1 PUSH2 0x93B SWAP3 SWAP2 SWAP1 PUSH2 0xE59 JUMP JUMPDEST POP PUSH1 0x20 DUP3 ADD MLOAD DUP2 PUSH1 0x1 ADD SWAP1 DUP1 MLOAD SWAP1 PUSH1 0x20 ADD SWAP1 PUSH2 0x958 SWAP3 SWAP2 SWAP1 PUSH2 0xE59 JUMP JUMPDEST POP PUSH1 0x40 DUP3 ADD MLOAD DUP2 PUSH1 0x2 ADD SWAP1 DUP1 MLOAD SWAP1 PUSH1 0x20 ADD SWAP1 PUSH2 0x975 SWAP3 SWAP2 SWAP1 PUSH2 0xE59 JUMP JUMPDEST POP PUSH1 0x60 DUP3 ADD MLOAD DUP2 PUSH1 0x3 ADD SWAP1 DUP1 MLOAD SWAP1 PUSH1 0x20 ADD SWAP1 PUSH2 0x992 SWAP3 SWAP2 SWAP1 PUSH2 0xE59 JUMP JUMPDEST POP PUSH1 0x80 DUP3 ADD MLOAD DUP2 PUSH1 0x4 ADD SWAP1 DUP1 MLOAD SWAP1 PUSH1 0x20 ADD SWAP1 PUSH2 0x9AF SWAP3 SWAP2 SWAP1 PUSH2 0xE59 JUMP JUMPDEST POP PUSH1 0xA0 DUP3 ADD MLOAD DUP2 PUSH1 0x5 ADD SWAP1 DUP1 MLOAD SWAP1 PUSH1 0x20 ADD SWAP1 PUSH2 0x9CC SWAP3 SWAP2 SWAP1 PUSH2 0xE59 JUMP JUMPDEST POP PUSH1 0xC0 DUP3 ADD MLOAD DUP2 PUSH1 0x6 ADD SWAP1 DUP1 MLOAD SWAP1 PUSH1 0x20 ADD SWAP1 PUSH2 0x9E9 SWAP3 SWAP2 SWAP1 PUSH2 0xE59 JUMP JUMPDEST POP POP POP DUP6 PUSH1 0x40 MLOAD PUSH2 0x9FA SWAP2 SWAP1 PUSH2 0x12DC JUMP JUMPDEST PUSH1 0x40 MLOAD DUP1 SWAP2 SUB SWAP1 KECCAK256 DUP8 PUSH1 0x40 MLOAD PUSH2 0xA10 SWAP2 SWAP1 PUSH2 0x12DC JUMP JUMPDEST PUSH1 0x40 MLOAD DUP1 SWAP2 SUB SWAP1 KECCAK256 DUP10 PUSH1 0x40 MLOAD PUSH2 0xA26 SWAP2 SWAP1 PUSH2 0x12DC JUMP JUMPDEST PUSH1 0x40 MLOAD DUP1 SWAP2 SUB SWAP1 KECCAK256 PUSH32 0x4E8B705A3955EE62B1FE75C9F4DF4ACAC784348305C2BA8E09B9201F50F7D927 DUP12 DUP12 DUP12 DUP12 DUP12 DUP12 DUP12 PUSH1 0x40 MLOAD PUSH2 0xA69 SWAP8 SWAP7 SWAP6 SWAP5 SWAP4 SWAP3 SWAP2 SWAP1 PUSH2 0x1329 JUMP JUMPDEST PUSH1 0x40 MLOAD DUP1 SWAP2 SUB SWAP1 LOG4 POP POP POP POP POP POP POP POP JUMP JUMPDEST PUSH1 0x0 PUSH1 0x2 PUSH1 0x0 DUP4 PUSH20 0xFFFFFFFFFFFFFFFFFFFFFFFFFFFFFFFFFFFFFFFF AND PUSH20 0xFFFFFFFFFFFFFFFFFFFFFFFFFFFFFFFFFFFFFFFF AND DUP2 MSTORE PUSH1 0x20 ADD SWAP1 DUP2 MSTORE PUSH1 0x20 ADD PUSH1 0x0 KECCAK256 DUP1 SLOAD SWAP1 POP SWAP1 POP SWAP2 SWAP1 POP JUMP JUMPDEST PUSH2 0xACF PUSH2 0xD8D JUMP JUMPDEST PUSH20 0xFFFFFFFFFFFFFFFFFFFFFFFFFFFFFFFFFFFFFFFF AND PUSH2 0xAED PUSH2 0x812 JUMP JUMPDEST PUSH20 0xFFFFFFFFFFFFFFFFFFFFFFFFFFFFFFFFFFFFFFFF AND EQ PUSH2 0xB43 JUMPI PUSH1 0x40 MLOAD PUSH32 0x8C379A000000000000000000000000000000000000000000000000000000000 DUP2 MSTORE PUSH1 0x4 ADD PUSH2 0xB3A SWAP1 PUSH2 0x1449 JUMP JUMPDEST PUSH1 0x40 MLOAD DUP1 SWAP2 SUB SWAP1 REVERT JUMPDEST PUSH1 0x0 PUSH20 0xFFFFFFFFFFFFFFFFFFFFFFFFFFFFFFFFFFFFFFFF AND DUP3 PUSH20 0xFFFFFFFFFFFFFFFFFFFFFFFFFFFFFFFFFFFFFFFF AND EQ ISZERO PUSH2 0xBB3 JUMPI PUSH1 0x40 MLOAD PUSH32 0x8C379A000000000000000000000000000000000000000000000000000000000 DUP2 MSTORE PUSH1 0x4 ADD PUSH2 0xBAA SWAP1 PUSH2 0x1409 JUMP JUMPDEST PUSH1 0x40 MLOAD DUP1 SWAP2 SUB SWAP1 REVERT JUMPDEST DUP1 SELFBALANCE LT ISZERO PUSH2 0xBF6 JUMPI PUSH1 0x40 MLOAD PUSH32 0x8C379A000000000000000000000000000000000000000000000000000000000 DUP2 MSTORE PUSH1 0x4 ADD PUSH2 0xBED SWAP1 PUSH2 0x1429 JUMP JUMPDEST PUSH1 0x40 MLOAD DUP1 SWAP2 SUB SWAP1 REVERT JUMPDEST DUP2 PUSH20 0xFFFFFFFFFFFFFFFFFFFFFFFFFFFFFFFFFFFFFFFF AND PUSH2 0x8FC DUP3 SWAP1 DUP2 ISZERO MUL SWAP1 PUSH1 0x40 MLOAD PUSH1 0x0 PUSH1 0x40 MLOAD DUP1 DUP4 SUB DUP2 DUP6 DUP9 DUP9 CALL SWAP4 POP POP POP POP ISZERO DUP1 ISZERO PUSH2 0xC3C JUMPI RETURNDATASIZE PUSH1 0x0 DUP1 RETURNDATACOPY RETURNDATASIZE PUSH1 0x0 REVERT JUMPDEST POP DUP2 PUSH20 0xFFFFFFFFFFFFFFFFFFFFFFFFFFFFFFFFFFFFFFFF AND PUSH32 0xB98A26C1D0427D0E3492E749861C7795BED8F6E7599A65143B5903942E611BB0 DUP3 PUSH1 0x40 MLOAD PUSH2 0xC83 SWAP2 SWAP1 PUSH2 0x1469 JUMP JUMPDEST PUSH1 0x40 MLOAD DUP1 SWAP2 SUB SWAP1 LOG2 POP POP JUMP JUMPDEST PUSH1 0x1 SLOAD DUP2 JUMP JUMPDEST PUSH2 0xC9D PUSH2 0xD8D JUMP JUMPDEST PUSH20 0xFFFFFFFFFFFFFFFFFFFFFFFFFFFFFFFFFFFFFFFF AND PUSH2 0xCBB PUSH2 0x812 JUMP JUMPDEST PUSH20 0xFFFFFFFFFFFFFFFFFFFFFFFFFFFFFFFFFFFFFFFF AND EQ PUSH2 0xD11 JUMPI PUSH1 0x40 MLOAD PUSH32 0x8C379A000000000000000000000000000000000000000000000000000000000 DUP2 MSTORE PUSH1 0x4 ADD PUSH2 0xD08 SWAP1 PUSH2 0x1449 JUMP JUMPDEST PUSH1 0x40 MLOAD DUP1 SWAP2 SUB SWAP1 REVERT JUMPDEST PUSH1 0x0 PUSH20 0xFFFFFFFFFFFFFFFFFFFFFFFFFFFFFFFFFFFFFFFF AND DUP2 PUSH20 0xFFFFFFFFFFFFFFFFFFFFFFFFFFFFFFFFFFFFFFFF AND EQ ISZERO PUSH2 0xD81 JUMPI PUSH1 0x40 MLOAD PUSH32 0x8C379A000000000000000000000000000000000000000000000000000000000 DUP2 MSTORE PUSH1 0x4 ADD PUSH2 0xD78 SWAP1 PUSH2 0x13E9 JUMP JUMPDEST PUSH1 0x40 MLOAD DUP1 SWAP2 SUB SWAP1 REVERT JUMPDEST PUSH2 0xD8A DUP2 PUSH2 0xD95 JUMP JUMPDEST POP JUMP JUMPDEST PUSH1 0x0 CALLER SWAP1 POP SWAP1 JUMP JUMPDEST PUSH1 0x0 DUP1 PUSH1 0x0 SWAP1 SLOAD SWAP1 PUSH2 0x100 EXP SWAP1 DIV PUSH20 0xFFFFFFFFFFFFFFFFFFFFFFFFFFFFFFFFFFFFFFFF AND SWAP1 POP DUP2 PUSH1 0x0 DUP1 PUSH2 0x100 EXP DUP2 SLOAD DUP2 PUSH20 0xFFFFFFFFFFFFFFFFFFFFFFFFFFFFFFFFFFFFFFFF MUL NOT AND SWAP1 DUP4 PUSH20 0xFFFFFFFFFFFFFFFFFFFFFFFFFFFFFFFFFFFFFFFF AND MUL OR SWAP1 SSTORE POP DUP2 PUSH20 0xFFFFFFFFFFFFFFFFFFFFFFFFFFFFFFFFFFFFFFFF AND DUP2 PUSH20 0xFFFFFFFFFFFFFFFFFFFFFFFFFFFFFFFFFFFFFFFF AND PUSH32 0x8BE0079C531659141344CD1FD0A4F28419497F9722A3DAAFE3B4186F6B6457E0 PUSH1 0x40 MLOAD PUSH1 0x40 MLOAD DUP1 SWAP2 SUB SWAP1 LOG3 POP POP JUMP JUMPDEST DUP3 DUP1 SLOAD PUSH2 0xE65 SWAP1 PUSH2 0x158B JUMP JUMPDEST SWAP1 PUSH1 0x0 MSTORE PUSH1 0x20 PUSH1 0x0 KECCAK256 SWAP1 PUSH1 0x1F ADD PUSH1 0x20 SWAP1 DIV DUP2 ADD SWAP3 DUP3 PUSH2 0xE87 JUMPI PUSH1 0x0 DUP6 SSTORE PUSH2 0xECE JUMP JUMPDEST DUP3 PUSH1 0x1F LT PUSH2 0xEA0 JUMPI DUP1 MLOAD PUSH1 0xFF NOT AND DUP4 DUP1 ADD OR DUP6 SSTORE PUSH2 0xECE JUMP JUMPDEST DUP3 DUP1 ADD PUSH1 0x1 ADD DUP6 SSTORE DUP3 ISZERO PUSH2 0xECE JUMPI SWAP2 DUP3 ADD JUMPDEST DUP3 DUP2 GT ISZERO PUSH2 0xECD JUMPI DUP3 MLOAD DUP3 SSTORE SWAP2 PUSH1 0x20 ADD SWAP2 SWAP1 PUSH1 0x1 ADD SWAP1 PUSH2 0xEB2 JUMP JUMPDEST JUMPDEST POP SWAP1 POP PUSH2 0xEDB SWAP2 SWAP1 PUSH2 0xEDF JUMP JUMPDEST POP SWAP1 JUMP JUMPDEST JUMPDEST DUP1 DUP3 GT ISZERO PUSH2 0xEF8 JUMPI PUSH1 0x0 DUP2 PUSH1 0x0 SWAP1 SSTORE POP PUSH1 0x1 ADD PUSH2 0xEE0 JUMP JUMPDEST POP SWAP1 JUMP JUMPDEST PUSH1 0x0 PUSH2 0xF0F PUSH2 0xF0A DUP5 PUSH2 0x14A9 JUMP JUMPDEST PUSH2 0x1484 JUMP JUMPDEST SWAP1 POP DUP3 DUP2 MSTORE PUSH1 0x20 DUP2 ADD DUP5 DUP5 DUP5 ADD GT ISZERO PUSH2 0xF2B JUMPI PUSH2 0xF2A PUSH2 0x1651 JUMP JUMPDEST JUMPDEST PUSH2 0xF36 DUP5 DUP3 DUP6 PUSH2 0x1549 JUMP JUMPDEST POP SWAP4 SWAP3 POP POP POP JUMP JUMPDEST PUSH1 0x0 DUP2 CALLDATALOAD SWAP1 POP PUSH2 0xF4D DUP2 PUSH2 0x1764 JUMP JUMPDEST SWAP3 SWAP2 POP POP JUMP JUMPDEST PUSH1 0x0 DUP3 PUSH1 0x1F DUP4 ADD SLT PUSH2 0xF68 JUMPI PUSH2 0xF67 PUSH2 0x164C JUMP JUMPDEST JUMPDEST DUP2 CALLDATALOAD PUSH2 0xF78 DUP5 DUP3 PUSH1 0x20 DUP7 ADD PUSH2 0xEFC JUMP JUMPDEST SWAP2 POP POP SWAP3 SWAP2 POP POP JUMP JUMPDEST PUSH1 0x0 DUP2 CALLDATALOAD SWAP1 POP PUSH2 0xF90 DUP2 PUSH2 0x177B JUMP JUMPDEST SWAP3 SWAP2 POP POP JUMP JUMPDEST PUSH1 0x0 PUSH1 0x20 DUP3 DUP5 SUB SLT ISZERO PUSH2 0xFAC JUMPI PUSH2 0xFAB PUSH2 0x165B JUMP JUMPDEST JUMPDEST PUSH1 0x0 PUSH2 0xFBA DUP5 DUP3 DUP6 ADD PUSH2 0xF3E JUMP JUMPDEST SWAP2 POP POP SWAP3 SWAP2 POP POP JUMP JUMPDEST PUSH1 0x0 DUP1 PUSH1 0x40 DUP4 DUP6 SUB SLT ISZERO PUSH2 0xFDA JUMPI PUSH2 0xFD9 PUSH2 0x165B JUMP JUMPDEST JUMPDEST PUSH1 0x0 PUSH2 0xFE8 DUP6 DUP3 DUP7 ADD PUSH2 0xF3E JUMP JUMPDEST SWAP3 POP POP PUSH1 0x20 PUSH2 0xFF9 DUP6 DUP3 DUP7 ADD PUSH2 0xF81 JUMP JUMPDEST SWAP2 POP POP SWAP3 POP SWAP3 SWAP1 POP JUMP JUMPDEST PUSH1 0x0 DUP1 PUSH1 0x0 DUP1 PUSH1 0x0 DUP1 PUSH1 0x0 PUSH1 0xE0 DUP9 DUP11 SUB SLT ISZERO PUSH2 0x1022 JUMPI PUSH2 0x1021 PUSH2 0x165B JUMP JUMPDEST JUMPDEST PUSH1 0x0 DUP9 ADD CALLDATALOAD PUSH8 0xFFFFFFFFFFFFFFFF DUP2 GT ISZERO PUSH2 0x1040 JUMPI PUSH2 0x103F PUSH2 0x1656 JUMP JUMPDEST JUMPDEST PUSH2 0x104C DUP11 DUP3 DUP12 ADD PUSH2 0xF53 JUMP JUMPDEST SWAP8 POP POP PUSH1 0x20 DUP9 ADD CALLDATALOAD PUSH8 0xFFFFFFFFFFFFFFFF DUP2 GT ISZERO PUSH2 0x106D JUMPI PUSH2 0x106C PUSH2 0x1656 JUMP JUMPDEST JUMPDEST PUSH2 0x1079 DUP11 DUP3 DUP12 ADD PUSH2 0xF53 JUMP JUMPDEST SWAP7 POP POP PUSH1 0x40 DUP9 ADD CALLDATALOAD PUSH8 0xFFFFFFFFFFFFFFFF DUP2 GT ISZERO PUSH2 0x109A JUMPI PUSH2 0x1099 PUSH2 0x1656 JUMP JUMPDEST JUMPDEST PUSH2 0x10A6 DUP11 DUP3 DUP12 ADD PUSH2 0xF53 JUMP JUMPDEST SWAP6 POP POP PUSH1 0x60 DUP9 ADD CALLDATALOAD PUSH8 0xFFFFFFFFFFFFFFFF DUP2 GT ISZERO PUSH2 0x10C7 JUMPI PUSH2 0x10C6 PUSH2 0x1656 JUMP JUMPDEST JUMPDEST PUSH2 0x10D3 DUP11 DUP3 DUP12 ADD PUSH2 0xF53 JUMP JUMPDEST SWAP5 POP POP PUSH1 0x80 DUP9 ADD CALLDATALOAD PUSH8 0xFFFFFFFFFFFFFFFF DUP2 GT ISZERO PUSH2 0x10F4 JUMPI PUSH2 0x10F3 PUSH2 0x1656 JUMP JUMPDEST JUMPDEST PUSH2 0x1100 DUP11 DUP3 DUP12 ADD PUSH2 0xF53 JUMP JUMPDEST SWAP4 POP POP PUSH1 0xA0 DUP9 ADD CALLDATALOAD PUSH8 0xFFFFFFFFFFFFFFFF DUP2 GT ISZERO PUSH2 0x1121 JUMPI PUSH2 0x1120 PUSH2 0x1656 JUMP JUMPDEST JUMPDEST PUSH2 0x112D DUP11 DUP3 DUP12 ADD PUSH2 0xF53 JUMP JUMPDEST SWAP3 POP POP PUSH1 0xC0 DUP9 ADD CALLDATALOAD PUSH8 0xFFFFFFFFFFFFFFFF DUP2 GT ISZERO PUSH2 0x114E JUMPI PUSH2 0x114D PUSH2 0x1656 JUMP JUMPDEST JUMPDEST PUSH2 0x115A DUP11 DUP3 DUP12 ADD PUSH2 0xF53 JUMP JUMPDEST SWAP2 POP POP SWAP3 SWAP6 SWAP9 SWAP2 SWAP5 SWAP8 POP SWAP3 SWAP6 POP JUMP JUMPDEST PUSH1 0x0 PUSH1 0x20 DUP3 DUP5 SUB SLT ISZERO PUSH2 0x117F JUMPI PUSH2 0x117E PUSH2 0x165B JUMP JUMPDEST JUMPDEST PUSH1 0x0 PUSH2 0x118D DUP5 DUP3 DUP6 ADD PUSH2 0xF81 JUMP JUMPDEST SWAP2 POP POP SWAP3 SWAP2 POP POP JUMP JUMPDEST PUSH2 0x119F DUP2 PUSH2 0x1501 JUMP JUMPDEST DUP3 MSTORE POP POP JUMP JUMPDEST PUSH2 0x11AE DUP2 PUSH2 0x1513 JUMP JUMPDEST DUP3 MSTORE POP POP JUMP JUMPDEST PUSH1 0x0 PUSH2 0x11BF DUP3 PUSH2 0x14DA JUMP JUMPDEST PUSH2 0x11C9 DUP2 DUP6 PUSH2 0x14E5 JUMP JUMPDEST SWAP4 POP PUSH2 0x11D9 DUP2 DUP6 PUSH1 0x20 DUP7 ADD PUSH2 0x1558 JUMP JUMPDEST PUSH2 0x11E2 DUP2 PUSH2 0x1660 JUMP JUMPDEST DUP5 ADD SWAP2 POP POP SWAP3 SWAP2 POP POP JUMP JUMPDEST PUSH1 0x0 PUSH2 0x11F8 DUP3 PUSH2 0x14DA JUMP JUMPDEST PUSH2 0x1202 DUP2 DUP6 PUSH2 0x14F6 JUMP JUMPDEST SWAP4 POP PUSH2 0x1212 DUP2 DUP6 PUSH1 0x20 DUP7 ADD PUSH2 0x1558 JUMP JUMPDEST DUP1 DUP5 ADD SWAP2 POP POP SWAP3 SWAP2 POP POP JUMP JUMPDEST PUSH1 0x0 PUSH2 0x122B PUSH1 0x1D DUP4 PUSH2 0x14E5 JUMP JUMPDEST SWAP2 POP PUSH2 0x1236 DUP3 PUSH2 0x1671 JUMP JUMPDEST PUSH1 0x20 DUP3 ADD SWAP1 POP SWAP2 SWAP1 POP JUMP JUMPDEST PUSH1 0x0 PUSH2 0x124E PUSH1 0x26 DUP4 PUSH2 0x14E5 JUMP JUMPDEST SWAP2 POP PUSH2 0x1259 DUP3 PUSH2 0x169A JUMP JUMPDEST PUSH1 0x40 DUP3 ADD SWAP1 POP SWAP2 SWAP1 POP JUMP JUMPDEST PUSH1 0x0 PUSH2 0x1271 PUSH1 0x1C DUP4 PUSH2 0x14E5 JUMP JUMPDEST SWAP2 POP PUSH2 0x127C DUP3 PUSH2 0x16E9 JUMP JUMPDEST PUSH1 0x20 DUP3 ADD SWAP1 POP SWAP2 SWAP1 POP JUMP JUMPDEST PUSH1 0x0 PUSH2 0x1294 PUSH1 0x1F DUP4 PUSH2 0x14E5 JUMP JUMPDEST SWAP2 POP PUSH2 0x129F DUP3 PUSH2 0x1712 JUMP JUMPDEST PUSH1 0x20 DUP3 ADD SWAP1 POP SWAP2 SWAP1 POP JUMP JUMPDEST PUSH1 0x0 PUSH2 0x12B7 PUSH1 0x20 DUP4 PUSH2 0x14E5 JUMP JUMPDEST SWAP2 POP PUSH2 0x12C2 DUP3 PUSH2 0x173B JUMP JUMPDEST PUSH1 0x20 DUP3 ADD SWAP1 POP SWAP2 SWAP1 POP JUMP JUMPDEST PUSH2 0x12D6 DUP2 PUSH2 0x153F JUMP JUMPDEST DUP3 MSTORE POP POP JUMP JUMPDEST PUSH1 0x0 PUSH2 0x12E8 DUP3 DUP5 PUSH2 0x11ED JUMP JUMPDEST SWAP2 POP DUP2 SWAP1 POP SWAP3 SWAP2 POP POP JUMP JUMPDEST PUSH1 0x0 PUSH1 0x20 DUP3 ADD SWAP1 POP PUSH2 0x1308 PUSH1 0x0 DUP4 ADD DUP5 PUSH2 0x1196 JUMP JUMPDEST SWAP3 SWAP2 POP POP JUMP JUMPDEST PUSH1 0x0 PUSH1 0x20 DUP3 ADD SWAP1 POP PUSH2 0x1323 PUSH1 0x0 DUP4 ADD DUP5 PUSH2 0x11A5 JUMP JUMPDEST SWAP3 SWAP2 POP POP JUMP JUMPDEST PUSH1 0x0 PUSH1 0xE0 DUP3 ADD SWAP1 POP DUP2 DUP2 SUB PUSH1 0x0 DUP4 ADD MSTORE PUSH2 0x1343 DUP2 DUP11 PUSH2 0x11B4 JUMP JUMPDEST SWAP1 POP DUP2 DUP2 SUB PUSH1 0x20 DUP4 ADD MSTORE PUSH2 0x1357 DUP2 DUP10 PUSH2 0x11B4 JUMP JUMPDEST SWAP1 POP DUP2 DUP2 SUB PUSH1 0x40 DUP4 ADD MSTORE PUSH2 0x136B DUP2 DUP9 PUSH2 0x11B4 JUMP JUMPDEST SWAP1 POP DUP2 DUP2 SUB PUSH1 0x60 DUP4 ADD MSTORE PUSH2 0x137F DUP2 DUP8 PUSH2 0x11B4 JUMP JUMPDEST SWAP1 POP DUP2 DUP2 SUB PUSH1 0x80 DUP4 ADD MSTORE PUSH2 0x1393 DUP2 DUP7 PUSH2 0x11B4 JUMP JUMPDEST SWAP1 POP DUP2 DUP2 SUB PUSH1 0xA0 DUP4 ADD MSTORE PUSH2 0x13A7 DUP2 DUP6 PUSH2 0x11B4 JUMP JUMPDEST SWAP1 POP DUP2 DUP2 SUB PUSH1 0xC0 DUP4 ADD MSTORE PUSH2 0x13BB DUP2 DUP5 PUSH2 0x11B4 JUMP JUMPDEST SWAP1 POP SWAP9 SWAP8 POP POP POP POP POP POP POP POP JUMP JUMPDEST PUSH1 0x0 PUSH1 0x20 DUP3 ADD SWAP1 POP DUP2 DUP2 SUB PUSH1 0x0 DUP4 ADD MSTORE PUSH2 0x13E2 DUP2 PUSH2 0x121E JUMP JUMPDEST SWAP1 POP SWAP2 SWAP1 POP JUMP JUMPDEST PUSH1 0x0 PUSH1 0x20 DUP3 ADD SWAP1 POP DUP2 DUP2 SUB PUSH1 0x0 DUP4 ADD MSTORE PUSH2 0x1402 DUP2 PUSH2 0x1241 JUMP JUMPDEST SWAP1 POP SWAP2 SWAP1 POP JUMP JUMPDEST PUSH1 0x0 PUSH1 0x20 DUP3 ADD SWAP1 POP DUP2 DUP2 SUB PUSH1 0x0 DUP4 ADD MSTORE PUSH2 0x1422 DUP2 PUSH2 0x1264 JUMP JUMPDEST SWAP1 POP SWAP2 SWAP1 POP JUMP JUMPDEST PUSH1 0x0 PUSH1 0x20 DUP3 ADD SWAP1 POP DUP2 DUP2 SUB PUSH1 0x0 DUP4 ADD MSTORE PUSH2 0x1442 DUP2 PUSH2 0x1287 JUMP JUMPDEST SWAP1 POP SWAP2 SWAP1 POP JUMP JUMPDEST PUSH1 0x0 PUSH1 0x20 DUP3 ADD SWAP1 POP DUP2 DUP2 SUB PUSH1 0x0 DUP4 ADD MSTORE PUSH2 0x1462 DUP2 PUSH2 0x12AA JUMP JUMPDEST SWAP1 POP SWAP2 SWAP1 POP JUMP JUMPDEST PUSH1 0x0 PUSH1 0x20 DUP3 ADD SWAP1 POP PUSH2 0x147E PUSH1 0x0 DUP4 ADD DUP5 PUSH2 0x12CD JUMP JUMPDEST SWAP3 SWAP2 POP POP JUMP JUMPDEST PUSH1 0x0 PUSH2 0x148E PUSH2 0x149F JUMP JUMPDEST SWAP1 POP PUSH2 0x149A DUP3 DUP3 PUSH2 0x15BD JUMP JUMPDEST SWAP2 SWAP1 POP JUMP JUMPDEST PUSH1 0x0 PUSH1 0x40 MLOAD SWAP1 POP SWAP1 JUMP JUMPDEST PUSH1 0x0 PUSH8 0xFFFFFFFFFFFFFFFF DUP3 GT ISZERO PUSH2 0x14C4 JUMPI PUSH2 0x14C3 PUSH2 0x161D JUMP JUMPDEST JUMPDEST PUSH2 0x14CD DUP3 PUSH2 0x1660 JUMP JUMPDEST SWAP1 POP PUSH1 0x20 DUP2 ADD SWAP1 POP SWAP2 SWAP1 POP JUMP JUMPDEST PUSH1 0x0 DUP2 MLOAD SWAP1 POP SWAP2 SWAP1 POP JUMP JUMPDEST PUSH1 0x0 DUP3 DUP3 MSTORE PUSH1 0x20 DUP3 ADD SWAP1 POP SWAP3 SWAP2 POP POP JUMP JUMPDEST PUSH1 0x0 DUP2 SWAP1 POP SWAP3 SWAP2 POP POP JUMP JUMPDEST PUSH1 0x0 PUSH2 0x150C DUP3 PUSH2 0x151F JUMP JUMPDEST SWAP1 POP SWAP2 SWAP1 POP JUMP JUMPDEST PUSH1 0x0 DUP2 ISZERO ISZERO SWAP1 POP SWAP2 SWAP1 POP JUMP JUMPDEST PUSH1 0x0 PUSH20 0xFFFFFFFFFFFFFFFFFFFFFFFFFFFFFFFFFFFFFFFF DUP3 AND SWAP1 POP SWAP2 SWAP1 POP JUMP JUMPDEST PUSH1 0x0 DUP2 SWAP1 POP SWAP2 SWAP1 POP JUMP JUMPDEST DUP3 DUP2 DUP4 CALLDATACOPY PUSH1 0x0 DUP4 DUP4 ADD MSTORE POP POP POP JUMP JUMPDEST PUSH1 0x0 JUMPDEST DUP4 DUP2 LT ISZERO PUSH2 0x1576 JUMPI DUP1 DUP3 ADD MLOAD DUP2 DUP5 ADD MSTORE PUSH1 0x20 DUP2 ADD SWAP1 POP PUSH2 0x155B JUMP JUMPDEST DUP4 DUP2 GT ISZERO PUSH2 0x1585 JUMPI PUSH1 0x0 DUP5 DUP5 ADD MSTORE JUMPDEST POP POP POP POP JUMP JUMPDEST PUSH1 0x0 PUSH1 0x2 DUP3 DIV SWAP1 POP PUSH1 0x1 DUP3 AND DUP1 PUSH2 0x15A3 JUMPI PUSH1 0x7F DUP3 AND SWAP2 POP JUMPDEST PUSH1 0x20 DUP3 LT DUP2 EQ ISZERO PUSH2 0x15B7 JUMPI PUSH2 0x15B6 PUSH2 0x15EE JUMP JUMPDEST JUMPDEST POP SWAP2 SWAP1 POP JUMP JUMPDEST PUSH2 0x15C6 DUP3 PUSH2 0x1660 JUMP JUMPDEST DUP2 ADD DUP2 DUP2 LT PUSH8 0xFFFFFFFFFFFFFFFF DUP3 GT OR ISZERO PUSH2 0x15E5 JUMPI PUSH2 0x15E4 PUSH2 0x161D JUMP JUMPDEST JUMPDEST DUP1 PUSH1 0x40 MSTORE POP POP POP JUMP JUMPDEST PUSH32 0x4E487B7100000000000000000000000000000000000000000000000000000000 PUSH1 0x0 MSTORE PUSH1 0x22 PUSH1 0x4 MSTORE PUSH1 0x24 PUSH1 0x0 REVERT JUMPDEST PUSH32 0x4E487B7100000000000000000000000000000000000000000000000000000000 PUSH1 0x0 MSTORE PUSH1 0x41 PUSH1 0x4 MSTORE PUSH1 0x24 PUSH1 0x0 REVERT JUMPDEST PUSH1 0x0 DUP1 REVERT JUMPDEST PUSH1 0x0 DUP1 REVERT JUMPDEST PUSH1 0x0 DUP1 REVERT JUMPDEST PUSH1 0x0 DUP1 REVERT JUMPDEST PUSH1 0x0 PUSH1 0x1F NOT PUSH1 0x1F DUP4 ADD AND SWAP1 POP SWAP2 SWAP1 POP JUMP JUMPDEST PUSH32 0x76616C75652073686F756C6420626520657861637420746F2066656520000000 PUSH1 0x0 DUP3 ADD MSTORE POP JUMP JUMPDEST PUSH32 0x4F776E61626C653A206E6577206F776E657220697320746865207A65726F2061 PUSH1 0x0 DUP3 ADD MSTORE PUSH32 0x6464726573730000000000000000000000000000000000000000000000000000 PUSH1 0x20 DUP3 ADD MSTORE POP JUMP JUMPDEST PUSH32 0x7472616E7366657220746F20746865207A65726F206164647265737300000000 PUSH1 0x0 DUP3 ADD MSTORE POP JUMP JUMPDEST PUSH32 0x7472616E7366657220616D6F756E7420657863656564732062616C616E636500 PUSH1 0x0 DUP3 ADD MSTORE POP JUMP JUMPDEST PUSH32 0x4F776E61626C653A2063616C6C6572206973206E6F7420746865206F776E6572 PUSH1 0x0 DUP3 ADD MSTORE POP JUMP JUMPDEST PUSH2 0x176D DUP2 PUSH2 0x1501 JUMP JUMPDEST DUP2 EQ PUSH2 0x1778 JUMPI PUSH1 0x0 DUP1 REVERT JUMPDEST POP JUMP JUMPDEST PUSH2 0x1784 DUP2 PUSH2 0x153F JUMP JUMPDEST DUP2 EQ PUSH2 0x178F JUMPI PUSH1 0x0 DUP1 REVERT JUMPDEST POP JUMP INVALID LOG2 PUSH5 0x6970667358 0x22 SLT KECCAK256 0xC5 0x26 PUSH8 0x5C7BD1D4D46E9FB5 DELEGATECALL CREATE2 PUSH14 0x8E766DEFE2FAE876DBCC7FEBF7AF EXTCODECOPY 0xC8 0xF7 PUSH22 0x64736F6C634300080700330000000000000000000000 "
    },
    "gasEstimates": {
      "creation": {
        "codeDepositCost": "1217600",
        "executionCost": "infinite",
        "totalCost": "infinite"
      },
      "external": {
        "": "196",
        "createEpitaph(string,string,string,string,string,string,string)": "infinite",
        "epitaphs(address,uint256)": "infinite",
        "fee()": "2495",
        "getAddressEpitaphCount(address)": "2871",
        "getBalance()": "2677",
        "owner()": "2611",
        "renounceOwnership()": "30441",
        "setFee(uint256)": "25007",
        "transfer(address,uint256)": "infinite",
        "transferOwnership(address)": "30811"
      }
    },
    "methodIdentifiers": {
      "createEpitaph(string,string,string,string,string,string,string)": "8f2c4a4e",
      "epitaphs(address,uint256)": "15c18d4a",
      "fee()": "ddca3f43",
      "getAddressEpitaphCount(address)": "a12bcbe5",
      "getBalance()": "12065fe0",
      "owner()": "8da5cb5b",
      "renounceOwnership()": "715018a6",
      "setFee(uint256)": "69fe0e2d",
      "transfer(address,uint256)": "a9059cbb",
      "transferOwnership(address)": "f2fde38b"
    }
  },
  "abi": [
    {
      "inputs": [],
      "stateMutability": "nonpayable",
      "type": "constructor"
    },
    {
      "anonymous": false,
      "inputs": [
        {
          "indexed": true,
          "internalType": "string",
          "name": "firstName",
          "type": "string"
        },
        {
          "indexed": true,
          "internalType": "string",
          "name": "lastName",
          "type": "string"
        },
        {
          "indexed": true,
          "internalType": "string",
          "name": "birthCity",
          "type": "string"
        },
        {
          "indexed": false,
          "internalType": "string",
          "name": "firstNameStr",
          "type": "string"
        },
        {
          "indexed": false,
          "internalType": "string",
          "name": "lastNameStr",
          "type": "string"
        },
        {
          "indexed": false,
          "internalType": "string",
          "name": "birthCityStr",
          "type": "string"
        },
        {
          "indexed": false,
          "internalType": "string",
          "name": "birthCountry",
          "type": "string"
        },
        {
          "indexed": false,
          "internalType": "string",
          "name": "birthDate",
          "type": "string"
        },
        {
          "indexed": false,
          "internalType": "string",
          "name": "deathDate",
          "type": "string"
        },
        {
          "indexed": false,
          "internalType": "string",
          "name": "notes",
          "type": "string"
        }
      ],
      "name": "EpitaphEvent",
      "type": "event"
    },
    {
      "anonymous": false,
      "inputs": [
        {
          "indexed": true,
          "internalType": "address",
          "name": "previousOwner",
          "type": "address"
        },
        {
          "indexed": true,
          "internalType": "address",
          "name": "newOwner",
          "type": "address"
        }
      ],
      "name": "OwnershipTransferred",
      "type": "event"
    },
    {
      "anonymous": false,
      "inputs": [
        {
          "indexed": true,
          "internalType": "address",
          "name": "to",
          "type": "address"
        },
        {
          "indexed": false,
          "internalType": "uint256",
          "name": "value",
          "type": "uint256"
        }
      ],
      "name": "TransferEvent",
      "type": "event"
    },
    {
      "stateMutability": "payable",
      "type": "fallback"
    },
    {
      "inputs": [
        {
          "internalType": "string",
          "name": "_firstName",
          "type": "string"
        },
        {
          "internalType": "string",
          "name": "_lastName",
          "type": "string"
        },
        {
          "internalType": "string",
          "name": "_birthCity",
          "type": "string"
        },
        {
          "internalType": "string",
          "name": "_birthCountry",
          "type": "string"
        },
        {
          "internalType": "string",
          "name": "_birthDate",
          "type": "string"
        },
        {
          "internalType": "string",
          "name": "_deathDate",
          "type": "string"
        },
        {
          "internalType": "string",
          "name": "_notes",
          "type": "string"
        }
      ],
      "name": "createEpitaph",
      "outputs": [],
      "stateMutability": "payable",
      "type": "function"
    },
    {
      "inputs": [
        {
          "internalType": "address",
          "name": "",
          "type": "address"
        },
        {
          "internalType": "uint256",
          "name": "",
          "type": "uint256"
        }
      ],
      "name": "epitaphs",
      "outputs": [
        {
          "internalType": "string",
          "name": "firstName",
          "type": "string"
        },
        {
          "internalType": "string",
          "name": "lastName",
          "type": "string"
        },
        {
          "internalType": "string",
          "name": "birthCity",
          "type": "string"
        },
        {
          "internalType": "string",
          "name": "birthCountry",
          "type": "string"
        },
        {
          "internalType": "string",
          "name": "birthDate",
          "type": "string"
        },
        {
          "internalType": "string",
          "name": "deathDate",
          "type": "string"
        },
        {
          "internalType": "string",
          "name": "notes",
          "type": "string"
        }
      ],
      "stateMutability": "view",
      "type": "function"
    },
    {
      "inputs": [],
      "name": "fee",
      "outputs": [
        {
          "internalType": "uint256",
          "name": "",
          "type": "uint256"
        }
      ],
      "stateMutability": "view",
      "type": "function"
    },
    {
      "inputs": [
        {
          "internalType": "address",
          "name": "_epitaphOwner",
          "type": "address"
        }
      ],
      "name": "getAddressEpitaphCount",
      "outputs": [
        {
          "internalType": "uint256",
          "name": "",
          "type": "uint256"
        }
      ],
      "stateMutability": "view",
      "type": "function"
    },
    {
      "inputs": [],
      "name": "getBalance",
      "outputs": [
        {
          "internalType": "uint256",
          "name": "",
          "type": "uint256"
        }
      ],
      "stateMutability": "view",
      "type": "function"
    },
    {
      "inputs": [],
      "name": "owner",
      "outputs": [
        {
          "internalType": "address",
          "name": "",
          "type": "address"
        }
      ],
      "stateMutability": "view",
      "type": "function"
    },
    {
      "inputs": [],
      "name": "renounceOwnership",
      "outputs": [],
      "stateMutability": "nonpayable",
      "type": "function"
    },
    {
      "inputs": [
        {
          "internalType": "uint256",
          "name": "newFee",
          "type": "uint256"
        }
      ],
      "name": "setFee",
      "outputs": [
        {
          "internalType": "bool",
          "name": "",
          "type": "bool"
        }
      ],
      "stateMutability": "nonpayable",
      "type": "function"
    },
    {
      "inputs": [
        {
          "internalType": "address",
          "name": "_to",
          "type": "address"
        },
        {
          "internalType": "uint256",
          "name": "_amount",
          "type": "uint256"
        }
      ],
      "name": "transfer",
      "outputs": [],
      "stateMutability": "nonpayable",
      "type": "function"
    },
    {
      "inputs": [
        {
          "internalType": "address",
          "name": "newOwner",
          "type": "address"
        }
      ],
      "name": "transferOwnership",
      "outputs": [],
      "stateMutability": "nonpayable",
      "type": "function"
    },
    {
      "stateMutability": "payable",
      "type": "receive"
    }
  ]
}